{
  "contractName": "Donation",
  "abi": [
    {
      "constant": true,
      "inputs": [
        {
          "name": "",
          "type": "uint256"
        }
      ],
      "name": "donors",
      "outputs": [
        {
          "name": "id",
          "type": "uint256"
        },
        {
          "name": "donoraddr",
          "type": "address"
        },
        {
          "name": "name",
          "type": "string"
        },
        {
          "name": "amountDonated",
          "type": "uint256"
        },
        {
          "name": "transfered",
          "type": "bool"
        }
      ],
      "payable": false,
      "stateMutability": "view",
      "type": "function",
      "signature": "0x4abfa163"
    },
    {
      "constant": true,
      "inputs": [],
      "name": "charityCount",
      "outputs": [
        {
          "name": "",
          "type": "uint256"
        }
      ],
      "payable": false,
      "stateMutability": "view",
      "type": "function",
      "signature": "0x91329493"
    },
    {
      "constant": true,
      "inputs": [],
      "name": "donorsCount",
      "outputs": [
        {
          "name": "",
          "type": "uint256"
        }
      ],
      "payable": false,
      "stateMutability": "view",
      "type": "function",
      "signature": "0x9ff534dc"
    },
    {
      "constant": true,
      "inputs": [
        {
          "name": "",
          "type": "uint256"
        }
      ],
      "name": "charities",
      "outputs": [
        {
          "name": "id",
          "type": "uint256"
        },
        {
          "name": "charityaddr",
          "type": "address"
        },
        {
          "name": "name",
          "type": "string"
        },
        {
          "name": "date",
          "type": "string"
        },
        {
          "name": "amountReceived",
          "type": "uint256"
        },
        {
          "name": "description",
          "type": "string"
        }
      ],
      "payable": false,
      "stateMutability": "view",
      "type": "function",
      "signature": "0xfb709d2e"
    },
    {
      "constant": true,
      "inputs": [
        {
          "name": "id",
          "type": "uint256"
        }
      ],
      "name": "getCharity",
      "outputs": [
        {
          "components": [
            {
              "name": "id",
              "type": "uint256"
            },
            {
              "name": "charityaddr",
              "type": "address"
            },
            {
              "name": "name",
              "type": "string"
            },
            {
              "name": "date",
              "type": "string"
            },
            {
              "name": "amountReceived",
              "type": "uint256"
            },
            {
              "name": "description",
              "type": "string"
            },
            {
              "name": "history",
              "type": "string[]"
            }
          ],
          "name": "",
          "type": "tuple"
        }
      ],
      "payable": false,
      "stateMutability": "view",
      "type": "function",
      "signature": "0xfd67db81"
    },
    {
      "constant": true,
      "inputs": [],
      "name": "getCharities",
      "outputs": [
        {
          "components": [
            {
              "name": "id",
              "type": "uint256"
            },
            {
              "name": "charityaddr",
              "type": "address"
            },
            {
              "name": "name",
              "type": "string"
            },
            {
              "name": "date",
              "type": "string"
            },
            {
              "name": "amountReceived",
              "type": "uint256"
            },
            {
              "name": "description",
              "type": "string"
            },
            {
              "name": "history",
              "type": "string[]"
            }
          ],
          "name": "",
          "type": "tuple[]"
        }
      ],
      "payable": false,
      "stateMutability": "view",
      "type": "function",
      "signature": "0x48112c6f"
    },
    {
      "constant": false,
      "inputs": [
        {
          "name": "name",
          "type": "string"
        },
        {
          "name": "description",
          "type": "string"
        },
        {
          "name": "date",
          "type": "string"
        }
      ],
      "name": "addCharity",
      "outputs": [],
      "payable": false,
      "stateMutability": "nonpayable",
      "type": "function",
      "signature": "0xf12d85e5"
    },
    {
      "constant": true,
      "inputs": [],
      "name": "getdonors",
      "outputs": [
        {
          "components": [
            {
              "name": "id",
              "type": "uint256"
            },
            {
              "name": "donoraddr",
              "type": "address"
            },
            {
              "name": "name",
              "type": "string"
            },
            {
              "name": "amountDonated",
              "type": "uint256"
            },
            {
              "name": "history",
              "type": "string[]"
            },
            {
              "name": "transfered",
              "type": "bool"
            }
          ],
          "name": "",
          "type": "tuple[]"
        }
      ],
      "payable": false,
      "stateMutability": "view",
      "type": "function",
      "signature": "0xe51cea7e"
    },
    {
      "constant": true,
      "inputs": [
        {
          "name": "id",
          "type": "uint256"
        }
      ],
      "name": "getdonor",
      "outputs": [
        {
          "components": [
            {
              "name": "id",
              "type": "uint256"
            },
            {
              "name": "donoraddr",
              "type": "address"
            },
            {
              "name": "name",
              "type": "string"
            },
            {
              "name": "amountDonated",
              "type": "uint256"
            },
            {
              "name": "history",
              "type": "string[]"
            },
            {
              "name": "transfered",
              "type": "bool"
            }
          ],
          "name": "",
          "type": "tuple"
        }
      ],
      "payable": false,
      "stateMutability": "view",
      "type": "function",
      "signature": "0xf55b6cbf"
    },
    {
      "constant": false,
      "inputs": [
        {
          "name": "charity_id",
          "type": "uint256"
        },
        {
          "name": "donorName",
          "type": "string"
        }
      ],
      "name": "addDonors",
      "outputs": [],
      "payable": false,
      "stateMutability": "nonpayable",
      "type": "function",
      "signature": "0x5f6332c0"
    },
    {
      "constant": false,
      "inputs": [
        {
          "name": "fromAddress",
          "type": "address"
        },
        {
          "name": "toAddress",
          "type": "address"
        },
        {
          "name": "amountDonated",
          "type": "uint256"
        }
      ],
      "name": "donate",
      "outputs": [],
      "payable": false,
      "stateMutability": "nonpayable",
      "type": "function",
      "signature": "0x386bc05a"
    },
    {
      "constant": false,
      "inputs": [
        {
          "name": "charityaddr",
          "type": "address"
        },
        {
          "name": "amountReceived",
          "type": "uint256"
        }
      ],
      "name": "deposite",
      "outputs": [
        {
          "name": "",
          "type": "uint256"
        }
      ],
      "payable": true,
      "stateMutability": "payable",
      "type": "function",
      "signature": "0x880cfc2f"
    },
    {
      "constant": false,
      "inputs": [
        {
          "name": "donoraddr",
          "type": "address"
        },
        {
          "name": "amountDonated",
          "type": "uint256"
        }
      ],
      "name": "withdraw",
      "outputs": [
        {
          "name": "",
          "type": "uint256"
        }
      ],
      "payable": false,
      "stateMutability": "nonpayable",
      "type": "function",
      "signature": "0xf3fef3a3"
    }
  ],
  "bytecode": "0x608060405260008055600060015534801561001957600080fd5b50612415806100296000396000f3fe6080604052600436106100c5576000357c0100000000000000000000000000000000000000000000000000000000900463ffffffff168063386bc05a146100ca57806348112c6f146100f35780634abfa1631461011e5780635f6332c01461015f578063880cfc2f1461018857806391329493146101b85780639ff534dc146101e3578063e51cea7e1461020e578063f12d85e514610239578063f3fef3a314610262578063f55b6cbf1461029f578063fb709d2e146102dc578063fd67db811461031e575b600080fd5b3480156100d657600080fd5b506100f160048036036100ec9190810190611ab9565b61035b565b005b3480156100ff57600080fd5b50610108610376565b60405161011591906120be565b60405180910390f35b34801561012a57600080fd5b5061014560048036036101409190810190611bdb565b61070f565b6040516101569594939291906121f7565b60405180910390f35b34801561016b57600080fd5b5061018660048036036101819190810190611c04565b610819565b005b6101a2600480360361019d9190810190611b08565b6109e8565b6040516101af9190612166565b60405180910390f35b3480156101c457600080fd5b506101cd610a7f565b6040516101da9190612166565b60405180910390f35b3480156101ef57600080fd5b506101f8610a85565b6040516102059190612166565b60405180910390f35b34801561021a57600080fd5b50610223610a8b565b60405161023091906120e0565b60405180910390f35b34801561024557600080fd5b50610260600480360361025b9190810190611b44565b610cfb565b005b34801561026e57600080fd5b5061028960048036036102849190810190611b08565b610e98565b6040516102969190612166565b60405180910390f35b3480156102ab57600080fd5b506102c660048036036102c19190810190611bdb565b610fb3565b6040516102d39190612144565b60405180910390f35b3480156102e857600080fd5b5061030360048036036102fe9190810190611bdb565b6111fb565b60405161031596959493929190612181565b60405180910390f35b34801561032a57600080fd5b5061034560048036036103409190810190611bdb565b61142e565b6040516103529190612122565b60405180910390f35b6103658382610e98565b5061037082826109e8565b50505050565b60606003805480602002602001604051908101604052809291908181526020016000905b82821015610706578382906000526020600020906007020160e06040519081016040529081600082015481526020016001820160009054906101000a900473ffffffffffffffffffffffffffffffffffffffff1673ffffffffffffffffffffffffffffffffffffffff1673ffffffffffffffffffffffffffffffffffffffff168152602001600282018054600181600116156101000203166002900480601f0160208091040260200160405190810160405280929190818152602001828054600181600116156101000203166002900480156104b75780601f1061048c576101008083540402835291602001916104b7565b820191906000526020600020905b81548152906001019060200180831161049a57829003601f168201915b50505050508152602001600382018054600181600116156101000203166002900480601f0160208091040260200160405190810160405280929190818152602001828054600181600116156101000203166002900480156105595780601f1061052e57610100808354040283529160200191610559565b820191906000526020600020905b81548152906001019060200180831161053c57829003601f168201915b5050505050815260200160048201548152602001600582018054600181600116156101000203166002900480601f0160208091040260200160405190810160405280929190818152602001828054600181600116156101000203166002900480156106055780601f106105da57610100808354040283529160200191610605565b820191906000526020600020905b8154815290600101906020018083116105e857829003601f168201915b5050505050815260200160068201805480602002602001604051908101604052809291908181526020016000905b828210156106ef578382906000526020600020018054600181600116156101000203166002900480601f0160208091040260200160405190810160405280929190818152602001828054600181600116156101000203166002900480156106db5780601f106106b0576101008083540402835291602001916106db565b820191906000526020600020905b8154815290600101906020018083116106be57829003601f168201915b505050505081526020019060010190610633565b50505050815250508152602001906001019061039a565b50505050905090565b60028181548110151561071e57fe5b90600052602060002090600602016000915090508060000154908060010160009054906101000a900473ffffffffffffffffffffffffffffffffffffffff1690806002018054600181600116156101000203166002900480601f0160208091040260200160405190810160405280929190818152602001828054600181600116156101000203166002900480156107f65780601f106107cb576101008083540402835291602001916107f6565b820191906000526020600020905b8154815290600101906020018083116107d957829003601f168201915b5050505050908060030154908060050160009054906101000a900460ff16905085565b6001600081548092919060010191905055506060606460405190808252806020026020018201604052801561086257816020015b606081526020019060019003908161084d5790505b50905060c06040519081016040528060015481526020013373ffffffffffffffffffffffffffffffffffffffff168152602001838152602001600081526020018281526020016000151581525060026001548154811015156108c057fe5b90600052602060002090600602016000820151816000015560208201518160010160006101000a81548173ffffffffffffffffffffffffffffffffffffffff021916908373ffffffffffffffffffffffffffffffffffffffff160217905550604082015181600201908051906020019061093b92919061179f565b5060608201518160030155608082015181600401908051906020019061096292919061181f565b5060a08201518160050160006101000a81548160ff02191690831515021790555090505060038381548110151561099557fe5b90600052602060002090600702016006018290806001815401808255809150509060018203906000526020600020016000909192909190915090805190602001906109e192919061187f565b5050505050565b600081600460008573ffffffffffffffffffffffffffffffffffffffff1673ffffffffffffffffffffffffffffffffffffffff16815260200190815260200160002060008282540192505081905550600460008473ffffffffffffffffffffffffffffffffffffffff1673ffffffffffffffffffffffffffffffffffffffff16815260200190815260200160002054905092915050565b60005481565b60015481565b60606002805480602002602001604051908101604052809291908181526020016000905b82821015610cf2578382906000526020600020906006020160c06040519081016040529081600082015481526020016001820160009054906101000a900473ffffffffffffffffffffffffffffffffffffffff1673ffffffffffffffffffffffffffffffffffffffff1673ffffffffffffffffffffffffffffffffffffffff168152602001600282018054600181600116156101000203166002900480601f016020809104026020016040519081016040528092919081815260200182805460018160011615610100020316600290048015610bcc5780601f10610ba157610100808354040283529160200191610bcc565b820191906000526020600020905b815481529060010190602001808311610baf57829003601f168201915b505050505081526020016003820154815260200160048201805480602002602001604051908101604052809291908181526020016000905b82821015610cc0578382906000526020600020018054600181600116156101000203166002900480601f016020809104026020016040519081016040528092919081815260200182805460018160011615610100020316600290048015610cac5780601f10610c8157610100808354040283529160200191610cac565b820191906000526020600020905b815481529060010190602001808311610c8f57829003601f168201915b505050505081526020019060010190610c04565b5050505081526020016005820160009054906101000a900460ff16151515158152505081526020019060010190610aaf565b50505050905090565b600080815480929190600101919050555060606064604051908082528060200260200182016040528015610d4357816020015b6060815260200190600190039081610d2e5790505b509050600360e06040519081016040528060005481526020013373ffffffffffffffffffffffffffffffffffffffff1681526020018681526020018481526020016000815260200185815260200183815250908060018154018082558091505090600182039060005260206000209060070201600090919290919091506000820151816000015560208201518160010160006101000a81548173ffffffffffffffffffffffffffffffffffffffff021916908373ffffffffffffffffffffffffffffffffffffffff1602179055506040820151816002019080519060200190610e2d92919061179f565b506060820151816003019080519060200190610e4a92919061179f565b506080820151816004015560a0820151816005019080519060200190610e7192919061179f565b5060c0820151816006019080519060200190610e8e92919061181f565b5050505050505050565b6000600460008473ffffffffffffffffffffffffffffffffffffffff1673ffffffffffffffffffffffffffffffffffffffff168152602001908152602001600020548211151515610f1e576040517f08c379a0000000000000000000000000000000000000000000000000000000008152600401610f1590612102565b60405180910390fd5b81600460008573ffffffffffffffffffffffffffffffffffffffff1673ffffffffffffffffffffffffffffffffffffffff16815260200190815260200160002060008282540392505081905550600460008473ffffffffffffffffffffffffffffffffffffffff1673ffffffffffffffffffffffffffffffffffffffff16815260200190815260200160002054905092915050565b610fbb6118ff565b600282815481101515610fca57fe5b906000526020600020906006020160c06040519081016040529081600082015481526020016001820160009054906101000a900473ffffffffffffffffffffffffffffffffffffffff1673ffffffffffffffffffffffffffffffffffffffff1673ffffffffffffffffffffffffffffffffffffffff168152602001600282018054600181600116156101000203166002900480601f0160208091040260200160405190810160405280929190818152602001828054600181600116156101000203166002900480156110dd5780601f106110b2576101008083540402835291602001916110dd565b820191906000526020600020905b8154815290600101906020018083116110c057829003601f168201915b505050505081526020016003820154815260200160048201805480602002602001604051908101604052809291908181526020016000905b828210156111d1578382906000526020600020018054600181600116156101000203166002900480601f0160208091040260200160405190810160405280929190818152602001828054600181600116156101000203166002900480156111bd5780601f10611192576101008083540402835291602001916111bd565b820191906000526020600020905b8154815290600101906020018083116111a057829003601f168201915b505050505081526020019060010190611115565b5050505081526020016005820160009054906101000a900460ff1615151515815250509050919050565b60038181548110151561120a57fe5b90600052602060002090600702016000915090508060000154908060010160009054906101000a900473ffffffffffffffffffffffffffffffffffffffff1690806002018054600181600116156101000203166002900480601f0160208091040260200160405190810160405280929190818152602001828054600181600116156101000203166002900480156112e25780601f106112b7576101008083540402835291602001916112e2565b820191906000526020600020905b8154815290600101906020018083116112c557829003601f168201915b505050505090806003018054600181600116156101000203166002900480601f0160208091040260200160405190810160405280929190818152602001828054600181600116156101000203166002900480156113805780601f1061135557610100808354040283529160200191611380565b820191906000526020600020905b81548152906001019060200180831161136357829003601f168201915b505050505090806004015490806005018054600181600116156101000203166002900480601f0160208091040260200160405190810160405280929190818152602001828054600181600116156101000203166002900480156114245780601f106113f957610100808354040283529160200191611424565b820191906000526020600020905b81548152906001019060200180831161140757829003601f168201915b5050505050905086565b61143661194e565b60038281548110151561144557fe5b906000526020600020906007020160e06040519081016040529081600082015481526020016001820160009054906101000a900473ffffffffffffffffffffffffffffffffffffffff1673ffffffffffffffffffffffffffffffffffffffff1673ffffffffffffffffffffffffffffffffffffffff168152602001600282018054600181600116156101000203166002900480601f0160208091040260200160405190810160405280929190818152602001828054600181600116156101000203166002900480156115585780601f1061152d57610100808354040283529160200191611558565b820191906000526020600020905b81548152906001019060200180831161153b57829003601f168201915b50505050508152602001600382018054600181600116156101000203166002900480601f0160208091040260200160405190810160405280929190818152602001828054600181600116156101000203166002900480156115fa5780601f106115cf576101008083540402835291602001916115fa565b820191906000526020600020905b8154815290600101906020018083116115dd57829003601f168201915b5050505050815260200160048201548152602001600582018054600181600116156101000203166002900480601f0160208091040260200160405190810160405280929190818152602001828054600181600116156101000203166002900480156116a65780601f1061167b576101008083540402835291602001916116a6565b820191906000526020600020905b81548152906001019060200180831161168957829003601f168201915b5050505050815260200160068201805480602002602001604051908101604052809291908181526020016000905b82821015611790578382906000526020600020018054600181600116156101000203166002900480601f01602080910402602001604051908101604052809291908181526020018280546001816001161561010002031660029004801561177c5780601f106117515761010080835404028352916020019161177c565b820191906000526020600020905b81548152906001019060200180831161175f57829003601f168201915b5050505050815260200190600101906116d4565b50505050815250509050919050565b828054600181600116156101000203166002900490600052602060002090601f016020900481019282601f106117e057805160ff191683800117855561180e565b8280016001018555821561180e579182015b8281111561180d5782518255916020019190600101906117f2565b5b50905061181b91906119a2565b5090565b82805482825590600052602060002090810192821561186e579160200282015b8281111561186d57825182908051906020019061185d92919061179f565b509160200191906001019061183f565b5b50905061187b91906119c7565b5090565b828054600181600116156101000203166002900490600052602060002090601f016020900481019282601f106118c057805160ff19168380011785556118ee565b828001600101855582156118ee579182015b828111156118ed5782518255916020019190600101906118d2565b5b5090506118fb91906119a2565b5090565b60c06040519081016040528060008152602001600073ffffffffffffffffffffffffffffffffffffffff1681526020016060815260200160008152602001606081526020016000151581525090565b60e06040519081016040528060008152602001600073ffffffffffffffffffffffffffffffffffffffff16815260200160608152602001606081526020016000815260200160608152602001606081525090565b6119c491905b808211156119c05760008160009055506001016119a8565b5090565b90565b6119f091905b808211156119ec57600081816119e391906119f3565b506001016119cd565b5090565b90565b50805460018160011615610100020316600290046000825580601f10611a195750611a38565b601f016020900490600052602060002090810190611a3791906119a2565b5b50565b6000611a47823561236c565b905092915050565b600082601f8301121515611a6257600080fd5b8135611a75611a708261227e565b612251565b91508082526020830160208301858383011115611a9157600080fd5b611a9c838284612388565b50505092915050565b6000611ab1823561237e565b905092915050565b600080600060608486031215611ace57600080fd5b6000611adc86828701611a3b565b9350506020611aed86828701611a3b565b9250506040611afe86828701611aa5565b9150509250925092565b60008060408385031215611b1b57600080fd5b6000611b2985828601611a3b565b9250506020611b3a85828601611aa5565b9150509250929050565b600080600060608486031215611b5957600080fd5b600084013567ffffffffffffffff811115611b7357600080fd5b611b7f86828701611a4f565b935050602084013567ffffffffffffffff811115611b9c57600080fd5b611ba886828701611a4f565b925050604084013567ffffffffffffffff811115611bc557600080fd5b611bd186828701611a4f565b9150509250925092565b600060208284031215611bed57600080fd5b6000611bfb84828501611aa5565b91505092915050565b60008060408385031215611c1757600080fd5b6000611c2585828601611aa5565b925050602083013567ffffffffffffffff811115611c4257600080fd5b611c4e85828601611a4f565b9150509250929050565b611c6181612324565b82525050565b6000611c72826122d1565b80845260208401935083602082028501611c8b856122aa565b60005b84811015611cc4578383038852611ca6838351611dc0565b9250611cb1826122fd565b9150602088019750600181019050611c8e565b508196508694505050505092915050565b6000611ce0826122dc565b80845260208401935083602082028501611cf9856122b7565b60005b84811015611d32578383038852611d14838351611ede565b9250611d1f8261230a565b9150602088019750600181019050611cfc565b508196508694505050505092915050565b6000611d4e826122e7565b80845260208401935083602082028501611d67856122c4565b60005b84811015611da0578383038852611d8283835161201f565b9250611d8d82612317565b9150602088019750600181019050611d6a565b508196508694505050505092915050565b611dba81612336565b82525050565b6000611dcb826122f2565b808452611ddf816020860160208601612397565b611de8816123ca565b602085010191505092915050565b6000600382527f65727200000000000000000000000000000000000000000000000000000000006020830152604082019050919050565b600060e083016000830151611e4560008601826120af565b506020830151611e586020860182611c58565b5060408301518482036040860152611e708282611dc0565b91505060608301518482036060860152611e8a8282611dc0565b9150506080830151611e9f60808601826120af565b5060a083015184820360a0860152611eb78282611dc0565b91505060c083015184820360c0860152611ed18282611c67565b9150508091505092915050565b600060e083016000830151611ef660008601826120af565b506020830151611f096020860182611c58565b5060408301518482036040860152611f218282611dc0565b91505060608301518482036060860152611f3b8282611dc0565b9150506080830151611f5060808601826120af565b5060a083015184820360a0860152611f688282611dc0565b91505060c083015184820360c0860152611f828282611c67565b9150508091505092915050565b600060c083016000830151611fa760008601826120af565b506020830151611fba6020860182611c58565b5060408301518482036040860152611fd28282611dc0565b9150506060830151611fe760608601826120af565b5060808301518482036080860152611fff8282611c67565b91505060a083015161201460a0860182611db1565b508091505092915050565b600060c08301600083015161203760008601826120af565b50602083015161204a6020860182611c58565b50604083015184820360408601526120628282611dc0565b915050606083015161207760608601826120af565b506080830151848203608086015261208f8282611c67565b91505060a08301516120a460a0860182611db1565b508091505092915050565b6120b881612362565b82525050565b600060208201905081810360008301526120d88184611cd5565b905092915050565b600060208201905081810360008301526120fa8184611d43565b905092915050565b6000602082019050818103600083015261211b81611df6565b9050919050565b6000602082019050818103600083015261213c8184611e2d565b905092915050565b6000602082019050818103600083015261215e8184611f8f565b905092915050565b600060208201905061217b60008301846120af565b92915050565b600060c08201905061219660008301896120af565b6121a36020830188611c58565b81810360408301526121b58187611dc0565b905081810360608301526121c98186611dc0565b90506121d860808301856120af565b81810360a08301526121ea8184611dc0565b9050979650505050505050565b600060a08201905061220c60008301886120af565b6122196020830187611c58565b818103604083015261222b8186611dc0565b905061223a60608301856120af565b6122476080830184611db1565b9695505050505050565b6000604051905081810181811067ffffffffffffffff8211171561227457600080fd5b8060405250919050565b600067ffffffffffffffff82111561229557600080fd5b601f19601f8301169050602081019050919050565b6000602082019050919050565b6000602082019050919050565b6000602082019050919050565b600081519050919050565b600081519050919050565b600081519050919050565b600081519050919050565b6000602082019050919050565b6000602082019050919050565b6000602082019050919050565b600061232f82612342565b9050919050565b60008115159050919050565b600073ffffffffffffffffffffffffffffffffffffffff82169050919050565b6000819050919050565b600061237782612342565b9050919050565b6000819050919050565b82818337600083830152505050565b60005b838110156123b557808201518184015260208101905061239a565b838111156123c4576000848401525b50505050565b6000601f19601f830116905091905056fea265627a7a723058204ee6957974c0f59ede19e9c5224491573f978053e5fe03dd76dc8ab5e9e125936c6578706572696d656e74616cf50037",
  "source": "pragma solidity <=0.8.11;\r\npragma experimental ABIEncoderV2;\r\ncontract Donation{\r\n    uint public charityCount=0;\r\n    uint public donorsCount=0;\r\n    DonorsInfo[] public donors;\r\n    Charity[] public charities;\r\n\r\n    struct Charity{\r\n        uint id;\r\n        address charityaddr;\r\n        string name;\r\n        string date;\r\n        uint amountReceived;\r\n        string description;\r\n        string[] history;\r\n    }\r\n\r\n    struct DonorsInfo{\r\n        uint id;\r\n        address donoraddr;\r\n\r\n        string name;\r\n        uint amountDonated;\r\n        string[] history;\r\n        bool transfered;\r\n    }\r\n    mapping (address=>uint) private balances;\r\n    function getCharity(uint id) public view returns (Charity memory) {\r\n        return charities[id];\r\n    }\r\n\r\n    function getCharities() public view returns (Charity[] memory) {\r\n        return charities;\r\n    }\r\n\r\n    function addCharity(string memory name,string memory description, string memory date) public {\r\n        charityCount++;\r\n        string[] memory history=new string[](100);\r\n        charities.push(Charity(charityCount,msg.sender,name,date,0,description,history));\r\n        \r\n    }\r\n\r\n    function getdonors() public view returns (DonorsInfo[] memory){\r\n        return donors;\r\n    }\r\n\r\n    function getdonor(uint id) public view returns (DonorsInfo memory){\r\n        return donors[id];\r\n    }\r\n\r\n    function addDonors(uint charity_id,  string memory donorName) public {\r\n        donorsCount++;\r\n        string[] memory _history = new string[](100);\r\n        donors[donorsCount] = DonorsInfo(donorsCount, msg.sender, donorName,0,_history, false);\r\n        charities[charity_id].history.push(donorName);\r\n    }\r\n\r\n    function donate(address fromAddress, address toAddress,uint amountDonated) public{\r\n        withdraw(fromAddress, amountDonated);\r\n        deposite(toAddress, amountDonated);\r\n    }\r\n    \r\n    function deposite(address charityaddr, uint amountReceived) public payable returns (uint){\r\n        balances[charityaddr] += amountReceived;\r\n        // emit depositemade(charityaddr, amountReceived) event here\r\n        return balances[charityaddr];\r\n    }\r\n    function withdraw(address  donoraddr, uint amountDonated) public returns (uint){\r\n        require(amountDonated <= balances[donoraddr],\"err\");\r\n        balances[donoraddr] -= amountDonated;\r\n        // donoraddr.transfer(amountDonated);\r\n        return balances[donoraddr];\r\n        \r\n    }\r\n    \r\n}",
  "sourcePath": "C:/Users/seams/Desktop/Practices/BlockchainPractices/Donation_System/contracts/Donation.sol",
  "compiler": {
    "name": "solc",
    "version": "0.5.0+commit.1d4f565a.Emscripten.clang"
  },
  "schemaVersion": "3.0.1",
  "updatedAt": "2022-01-12T12:13:22.342Z",
  "devdoc": {
    "methods": {}
  },
  "userdoc": {
    "methods": {}
  }
}