{
  "contractName": "Donation",
  "abi": [
    {
      "anonymous": false,
      "inputs": [
        {
          "indexed": false,
          "internalType": "string",
          "name": "name",
          "type": "string"
        },
        {
          "indexed": false,
          "internalType": "string",
          "name": "description",
          "type": "string"
        },
        {
          "indexed": false,
          "internalType": "uint256",
          "name": "amountReceived",
          "type": "uint256"
        },
        {
          "indexed": false,
          "internalType": "string",
          "name": "date",
          "type": "string"
        },
        {
          "indexed": false,
          "internalType": "string[]",
          "name": "history",
          "type": "string[]"
        }
      ],
      "name": "addCharityEv",
      "type": "event"
    },
    {
      "anonymous": false,
      "inputs": [
        {
          "indexed": false,
          "internalType": "uint256",
          "name": "charity_id",
          "type": "uint256"
        },
        {
          "indexed": false,
          "internalType": "string",
          "name": "name",
          "type": "string"
        },
        {
          "indexed": false,
          "internalType": "uint256",
          "name": "amountDonated",
          "type": "uint256"
        },
        {
          "indexed": false,
          "internalType": "string[]",
          "name": "history",
          "type": "string[]"
        },
        {
          "indexed": false,
          "internalType": "bool",
          "name": "transfered",
          "type": "bool"
        }
      ],
      "name": "addDonorEv",
      "type": "event"
    },
    {
      "anonymous": false,
      "inputs": [
        {
          "indexed": false,
          "internalType": "address",
          "name": "charityaddr",
          "type": "address"
        },
        {
          "indexed": false,
          "internalType": "uint256",
          "name": "amountReceived",
          "type": "uint256"
        }
      ],
      "name": "depositMade",
      "type": "event"
    },
    {
      "anonymous": false,
      "inputs": [
        {
          "indexed": false,
          "internalType": "address",
          "name": "fromAddress",
          "type": "address"
        },
        {
          "indexed": false,
          "internalType": "address",
          "name": "toAddress",
          "type": "address"
        },
        {
          "indexed": false,
          "internalType": "uint256",
          "name": "amountDonated",
          "type": "uint256"
        }
      ],
      "name": "donateEv",
      "type": "event"
    },
    {
      "anonymous": false,
      "inputs": [],
      "name": "getCharitiesEv",
      "type": "event"
    },
    {
      "anonymous": false,
      "inputs": [
        {
          "indexed": false,
          "internalType": "uint256",
          "name": "id",
          "type": "uint256"
        }
      ],
      "name": "getCharityEv",
      "type": "event"
    },
    {
      "anonymous": false,
      "inputs": [
        {
          "indexed": false,
          "internalType": "uint256",
          "name": "id",
          "type": "uint256"
        }
      ],
      "name": "getDonorEv",
      "type": "event"
    },
    {
      "anonymous": false,
      "inputs": [],
      "name": "getDonorsEv",
      "type": "event"
    },
    {
      "anonymous": false,
      "inputs": [
        {
          "indexed": false,
          "internalType": "address",
          "name": "donoraddr",
          "type": "address"
        },
        {
          "indexed": false,
          "internalType": "uint256",
          "name": "amountDonated",
          "type": "uint256"
        }
      ],
      "name": "withdrawalMade",
      "type": "event"
    },
    {
      "constant": true,
      "inputs": [
        {
          "internalType": "address",
          "name": "",
          "type": "address"
        }
      ],
      "name": "balances",
      "outputs": [
        {
          "internalType": "uint256",
          "name": "",
          "type": "uint256"
        }
      ],
      "payable": false,
      "stateMutability": "view",
      "type": "function"
    },
    {
      "constant": true,
      "inputs": [
        {
          "internalType": "uint256",
          "name": "",
          "type": "uint256"
        }
      ],
      "name": "charities",
      "outputs": [
        {
          "internalType": "uint256",
          "name": "id",
          "type": "uint256"
        },
        {
          "internalType": "address",
          "name": "charityaddr",
          "type": "address"
        },
        {
          "internalType": "string",
          "name": "name",
          "type": "string"
        },
        {
          "internalType": "string",
          "name": "date",
          "type": "string"
        },
        {
          "internalType": "uint256",
          "name": "amountReceived",
          "type": "uint256"
        },
        {
          "internalType": "string",
          "name": "description",
          "type": "string"
        },
        {
          "internalType": "uint256",
          "name": "balance",
          "type": "uint256"
        }
      ],
      "payable": false,
      "stateMutability": "view",
      "type": "function"
    },
    {
      "constant": true,
      "inputs": [],
      "name": "charityCount",
      "outputs": [
        {
          "internalType": "uint256",
          "name": "",
          "type": "uint256"
        }
      ],
      "payable": false,
      "stateMutability": "view",
      "type": "function"
    },
    {
      "constant": true,
      "inputs": [
        {
          "internalType": "address",
          "name": "",
          "type": "address"
        }
      ],
      "name": "charitym",
      "outputs": [
        {
          "internalType": "uint256",
          "name": "id",
          "type": "uint256"
        },
        {
          "internalType": "address",
          "name": "charityaddr",
          "type": "address"
        },
        {
          "internalType": "string",
          "name": "name",
          "type": "string"
        },
        {
          "internalType": "string",
          "name": "date",
          "type": "string"
        },
        {
          "internalType": "uint256",
          "name": "amountReceived",
          "type": "uint256"
        },
        {
          "internalType": "string",
          "name": "description",
          "type": "string"
        },
        {
          "internalType": "uint256",
          "name": "balance",
          "type": "uint256"
        }
      ],
      "payable": false,
      "stateMutability": "view",
      "type": "function"
    },
    {
      "constant": true,
      "inputs": [
        {
          "internalType": "address",
          "name": "",
          "type": "address"
        }
      ],
      "name": "donorm",
      "outputs": [
        {
          "internalType": "uint256",
          "name": "id",
          "type": "uint256"
        },
        {
          "internalType": "address",
          "name": "donoraddr",
          "type": "address"
        },
        {
          "internalType": "string",
          "name": "name",
          "type": "string"
        },
        {
          "internalType": "uint256",
          "name": "amountDonated",
          "type": "uint256"
        },
        {
          "internalType": "bool",
          "name": "transfered",
          "type": "bool"
        },
        {
          "internalType": "uint256",
          "name": "balance",
          "type": "uint256"
        }
      ],
      "payable": false,
      "stateMutability": "view",
      "type": "function"
    },
    {
      "constant": true,
      "inputs": [
        {
          "internalType": "uint256",
          "name": "",
          "type": "uint256"
        }
      ],
      "name": "donors",
      "outputs": [
        {
          "internalType": "uint256",
          "name": "id",
          "type": "uint256"
        },
        {
          "internalType": "address",
          "name": "donoraddr",
          "type": "address"
        },
        {
          "internalType": "string",
          "name": "name",
          "type": "string"
        },
        {
          "internalType": "uint256",
          "name": "amountDonated",
          "type": "uint256"
        },
        {
          "internalType": "bool",
          "name": "transfered",
          "type": "bool"
        },
        {
          "internalType": "uint256",
          "name": "balance",
          "type": "uint256"
        }
      ],
      "payable": false,
      "stateMutability": "view",
      "type": "function"
    },
    {
      "constant": true,
      "inputs": [],
      "name": "donorsCount",
      "outputs": [
        {
          "internalType": "uint256",
          "name": "",
          "type": "uint256"
        }
      ],
      "payable": false,
      "stateMutability": "view",
      "type": "function"
    },
    {
      "constant": true,
      "inputs": [
        {
          "internalType": "uint256",
          "name": "id",
          "type": "uint256"
        }
      ],
      "name": "getCharity",
      "outputs": [
        {
          "components": [
            {
              "internalType": "uint256",
              "name": "id",
              "type": "uint256"
            },
            {
              "internalType": "address",
              "name": "charityaddr",
              "type": "address"
            },
            {
              "internalType": "string",
              "name": "name",
              "type": "string"
            },
            {
              "internalType": "string",
              "name": "date",
              "type": "string"
            },
            {
              "internalType": "uint256",
              "name": "amountReceived",
              "type": "uint256"
            },
            {
              "internalType": "string",
              "name": "description",
              "type": "string"
            },
            {
              "internalType": "string[]",
              "name": "history",
              "type": "string[]"
            },
            {
              "internalType": "uint256",
              "name": "balance",
              "type": "uint256"
            }
          ],
          "internalType": "struct Donation.Charity",
          "name": "",
          "type": "tuple"
        }
      ],
      "payable": false,
      "stateMutability": "view",
      "type": "function"
    },
    {
      "constant": true,
      "inputs": [],
      "name": "getCharities",
      "outputs": [
        {
          "components": [
            {
              "internalType": "uint256",
              "name": "id",
              "type": "uint256"
            },
            {
              "internalType": "address",
              "name": "charityaddr",
              "type": "address"
            },
            {
              "internalType": "string",
              "name": "name",
              "type": "string"
            },
            {
              "internalType": "string",
              "name": "date",
              "type": "string"
            },
            {
              "internalType": "uint256",
              "name": "amountReceived",
              "type": "uint256"
            },
            {
              "internalType": "string",
              "name": "description",
              "type": "string"
            },
            {
              "internalType": "string[]",
              "name": "history",
              "type": "string[]"
            },
            {
              "internalType": "uint256",
              "name": "balance",
              "type": "uint256"
            }
          ],
          "internalType": "struct Donation.Charity[]",
          "name": "",
          "type": "tuple[]"
        }
      ],
      "payable": false,
      "stateMutability": "view",
      "type": "function"
    },
    {
      "constant": true,
      "inputs": [
        {
          "internalType": "uint256",
          "name": "charity_id",
          "type": "uint256"
        }
      ],
      "name": "getCharityBalance",
      "outputs": [
        {
          "internalType": "uint256",
          "name": "",
          "type": "uint256"
        }
      ],
      "payable": false,
      "stateMutability": "view",
      "type": "function"
    },
    {
      "constant": true,
      "inputs": [
        {
          "internalType": "uint256",
          "name": "donor_id",
          "type": "uint256"
        }
      ],
      "name": "getDonorBalance",
      "outputs": [
        {
          "internalType": "uint256",
          "name": "",
          "type": "uint256"
        }
      ],
      "payable": false,
      "stateMutability": "view",
      "type": "function"
    },
    {
      "constant": false,
      "inputs": [
        {
          "internalType": "string",
          "name": "name",
          "type": "string"
        },
        {
          "internalType": "string",
          "name": "description",
          "type": "string"
        },
        {
          "internalType": "string",
          "name": "date",
          "type": "string"
        }
      ],
      "name": "addCharity",
      "outputs": [],
      "payable": false,
      "stateMutability": "nonpayable",
      "type": "function"
    },
    {
      "constant": true,
      "inputs": [],
      "name": "getdonors",
      "outputs": [
        {
          "components": [
            {
              "internalType": "uint256",
              "name": "id",
              "type": "uint256"
            },
            {
              "internalType": "address",
              "name": "donoraddr",
              "type": "address"
            },
            {
              "internalType": "string",
              "name": "name",
              "type": "string"
            },
            {
              "internalType": "uint256",
              "name": "amountDonated",
              "type": "uint256"
            },
            {
              "internalType": "string[]",
              "name": "history",
              "type": "string[]"
            },
            {
              "internalType": "bool",
              "name": "transfered",
              "type": "bool"
            },
            {
              "internalType": "uint256",
              "name": "balance",
              "type": "uint256"
            }
          ],
          "internalType": "struct Donation.DonorsInfo[]",
          "name": "",
          "type": "tuple[]"
        }
      ],
      "payable": false,
      "stateMutability": "view",
      "type": "function"
    },
    {
      "constant": true,
      "inputs": [
        {
          "internalType": "uint256",
          "name": "id",
          "type": "uint256"
        }
      ],
      "name": "getdonor",
      "outputs": [
        {
          "components": [
            {
              "internalType": "uint256",
              "name": "id",
              "type": "uint256"
            },
            {
              "internalType": "address",
              "name": "donoraddr",
              "type": "address"
            },
            {
              "internalType": "string",
              "name": "name",
              "type": "string"
            },
            {
              "internalType": "uint256",
              "name": "amountDonated",
              "type": "uint256"
            },
            {
              "internalType": "string[]",
              "name": "history",
              "type": "string[]"
            },
            {
              "internalType": "bool",
              "name": "transfered",
              "type": "bool"
            },
            {
              "internalType": "uint256",
              "name": "balance",
              "type": "uint256"
            }
          ],
          "internalType": "struct Donation.DonorsInfo",
          "name": "",
          "type": "tuple"
        }
      ],
      "payable": false,
      "stateMutability": "view",
      "type": "function"
    },
    {
      "constant": false,
      "inputs": [
        {
          "internalType": "uint256",
          "name": "charity_id",
          "type": "uint256"
        },
        {
          "internalType": "string",
          "name": "donorName",
          "type": "string"
        },
        {
          "internalType": "uint256",
          "name": "amountDonated",
          "type": "uint256"
        }
      ],
      "name": "addDonors",
      "outputs": [],
      "payable": false,
      "stateMutability": "nonpayable",
      "type": "function"
    },
    {
      "constant": false,
      "inputs": [
        {
          "internalType": "uint256",
          "name": "charity_id",
          "type": "uint256"
        },
        {
          "internalType": "uint256",
          "name": "donor_id",
          "type": "uint256"
        },
        {
          "internalType": "address payable",
          "name": "fromAddress",
          "type": "address"
        },
        {
          "internalType": "address payable",
          "name": "toAddress",
          "type": "address"
        },
        {
          "internalType": "uint256",
          "name": "amountDonated",
          "type": "uint256"
        }
      ],
      "name": "donate",
      "outputs": [],
      "payable": true,
      "stateMutability": "payable",
      "type": "function"
    },
    {
      "constant": false,
      "inputs": [
        {
          "internalType": "address payable",
          "name": "charityaddr",
          "type": "address"
        },
        {
          "internalType": "uint256",
          "name": "amountReceived",
          "type": "uint256"
        },
        {
          "internalType": "uint256",
          "name": "charity_id",
          "type": "uint256"
        }
      ],
      "name": "deposit",
      "outputs": [
        {
          "internalType": "uint256",
          "name": "",
          "type": "uint256"
        }
      ],
      "payable": false,
      "stateMutability": "nonpayable",
      "type": "function"
    },
    {
      "constant": false,
      "inputs": [
        {
          "internalType": "address payable",
          "name": "donoraddr",
          "type": "address"
        },
        {
          "internalType": "uint256",
          "name": "amountDonated",
          "type": "uint256"
        },
        {
          "internalType": "uint256",
          "name": "donor_id",
          "type": "uint256"
        }
      ],
      "name": "withdraw",
      "outputs": [
        {
          "internalType": "uint256",
          "name": "",
          "type": "uint256"
        }
      ],
      "payable": false,
      "stateMutability": "nonpayable",
      "type": "function"
    }
  ],
  "bytecode": "0x608060405260008055600060015534801561001957600080fd5b506132fe806100296000396000f3fe6080604052600436106101095760003560e01c8063ab46565e11610095578063e51cea7e11610064578063e51cea7e146103cc578063f12d85e5146103f7578063f55b6cbf14610420578063fb709d2e1461045d578063fd67db81146104a057610109565b8063ab46565e146102f9578063b5c5f67214610315578063c984ae0414610352578063d0dcd0bb1461038f57610109565b806348112c6f116100dc57806348112c6f1461020d5780634abfa163146102385780638121f54d1461027a57806391329493146102a35780639ff534dc146102ce57610109565b8063054398981461010e5780630efe6a8b1461015057806327e235e31461018d5780633833b130146101ca575b600080fd5b34801561011a57600080fd5b50610135600480360361013091908101906124d4565b6104dd565b60405161014796959493929190612f43565b60405180910390f35b34801561015c57600080fd5b50610177600480360361017291908101906124fd565b6105de565b6040516101849190612ea4565b60405180910390f35b34801561019957600080fd5b506101b460048036036101af91908101906124d4565b61066d565b6040516101c19190612ea4565b60405180910390f35b3480156101d657600080fd5b506101f160048036036101ec91908101906124d4565b610685565b6040516102049796959493929190612ebf565b60405180910390f35b34801561021957600080fd5b506102226108af565b60405161022f9190612d8d565b60405180910390f35b34801561024457600080fd5b5061025f600480360361025a91908101906125e3565b610c52565b60405161027196959493929190612f43565b60405180910390f35b34801561028657600080fd5b506102a1600480360361029c919081019061260c565b610d60565b005b3480156102af57600080fd5b506102b86110b3565b6040516102c59190612ea4565b60405180910390f35b3480156102da57600080fd5b506102e36110b9565b6040516102f09190612ea4565b60405180910390f35b610313600480360361030e9190810190612673565b6110bf565b005b34801561032157600080fd5b5061033c600480360361033791908101906124fd565b611160565b6040516103499190612ea4565b60405180910390f35b34801561035e57600080fd5b50610379600480360361037491908101906125e3565b611250565b6040516103869190612ea4565b60405180910390f35b34801561039b57600080fd5b506103b660048036036103b191908101906125e3565b611278565b6040516103c39190612ea4565b60405180910390f35b3480156103d857600080fd5b506103e16112a0565b6040516103ee9190612daf565b60405180910390f35b34801561040357600080fd5b5061041e6004803603610419919081019061254c565b611519565b005b34801561042c57600080fd5b50610447600480360361044291908101906125e3565b611939565b6040516104549190612e82565b60405180910390f35b34801561046957600080fd5b50610484600480360361047f91908101906125e3565b611b88565b6040516104979796959493929190612ebf565b60405180910390f35b3480156104ac57600080fd5b506104c760048036036104c291908101906125e3565b611dbf565b6040516104d49190612e60565b60405180910390f35b60076020528060005260406000206000915090508060000154908060010160009054906101000a900473ffffffffffffffffffffffffffffffffffffffff1690806002018054600181600116156101000203166002900480601f0160208091040260200160405190810160405280929190818152602001828054600181600116156101000203166002900480156105b55780601f1061058a576101008083540402835291602001916105b5565b820191906000526020600020905b81548152906001019060200180831161059857829003601f168201915b5050505050908060030154908060050160009054906101000a900460ff16908060060154905086565b600082600483815481106105ee57fe5b9060005260206000209060080201600701600082825401925050819055507f14558f60a55f03caac2b3dabdda0b51b20b0e22ce09a2c28cd1dc18e873578e8848460405161063d929190612d64565b60405180910390a16004828154811061065257fe5b90600052602060002090600802016007015490509392505050565b60056020528060005260406000206000915090505481565b60066020528060005260406000206000915090508060000154908060010160009054906101000a900473ffffffffffffffffffffffffffffffffffffffff1690806002018054600181600116156101000203166002900480601f01602080910402602001604051908101604052809291908181526020018280546001816001161561010002031660029004801561075d5780601f106107325761010080835404028352916020019161075d565b820191906000526020600020905b81548152906001019060200180831161074057829003601f168201915b505050505090806003018054600181600116156101000203166002900480601f0160208091040260200160405190810160405280929190818152602001828054600181600116156101000203166002900480156107fb5780601f106107d0576101008083540402835291602001916107fb565b820191906000526020600020905b8154815290600101906020018083116107de57829003601f168201915b505050505090806004015490806005018054600181600116156101000203166002900480601f01602080910402602001604051908101604052809291908181526020018280546001816001161561010002031660029004801561089f5780601f106108745761010080835404028352916020019161089f565b820191906000526020600020905b81548152906001019060200180831161088257829003601f168201915b5050505050908060070154905087565b60606004805480602002602001604051908101604052809291908181526020016000905b82821015610c49578382906000526020600020906008020160405180610100016040529081600082015481526020016001820160009054906101000a900473ffffffffffffffffffffffffffffffffffffffff1673ffffffffffffffffffffffffffffffffffffffff1673ffffffffffffffffffffffffffffffffffffffff168152602001600282018054600181600116156101000203166002900480601f0160208091040260200160405190810160405280929190818152602001828054600181600116156101000203166002900480156109f05780601f106109c5576101008083540402835291602001916109f0565b820191906000526020600020905b8154815290600101906020018083116109d357829003601f168201915b50505050508152602001600382018054600181600116156101000203166002900480601f016020809104026020016040519081016040528092919081815260200182805460018160011615610100020316600290048015610a925780601f10610a6757610100808354040283529160200191610a92565b820191906000526020600020905b815481529060010190602001808311610a7557829003601f168201915b5050505050815260200160048201548152602001600582018054600181600116156101000203166002900480601f016020809104026020016040519081016040528092919081815260200182805460018160011615610100020316600290048015610b3e5780601f10610b1357610100808354040283529160200191610b3e565b820191906000526020600020905b815481529060010190602001808311610b2157829003601f168201915b5050505050815260200160068201805480602002602001604051908101604052809291908181526020016000905b82821015610c28578382906000526020600020018054600181600116156101000203166002900480601f016020809104026020016040519081016040528092919081815260200182805460018160011615610100020316600290048015610c145780601f10610be957610100808354040283529160200191610c14565b820191906000526020600020905b815481529060010190602001808311610bf757829003601f168201915b505050505081526020019060010190610b6c565b505050508152602001600782015481525050815260200190600101906108d3565b50505050905090565b60038181548110610c5f57fe5b90600052602060002090600702016000915090508060000154908060010160009054906101000a900473ffffffffffffffffffffffffffffffffffffffff1690806002018054600181600116156101000203166002900480601f016020809104026020016040519081016040528092919081815260200182805460018160011615610100020316600290048015610d375780601f10610d0c57610100808354040283529160200191610d37565b820191906000526020600020905b815481529060010190602001808311610d1a57829003601f168201915b5050505050908060030154908060050160009054906101000a900460ff16908060060154905086565b6001600081548092919060010191905055506060600a604051908082528060200260200182016040528015610da957816020015b6060815260200190600190039081610d945790505b50905060036040518060e0016040528060015481526020013373ffffffffffffffffffffffffffffffffffffffff1681526020018581526020018481526020018381526020016001151581526020016064815250908060018154018082558091505090600182039060005260206000209060070201600090919290919091506000820151816000015560208201518160010160006101000a81548173ffffffffffffffffffffffffffffffffffffffff021916908373ffffffffffffffffffffffffffffffffffffffff1602179055506040820151816002019080519060200190610e95929190612138565b50606082015181600301556080820151816004019080519060200190610ebc9291906121b8565b5060a08201518160050160006101000a81548160ff02191690831515021790555060c08201518160060155505050600154600760003373ffffffffffffffffffffffffffffffffffffffff1673ffffffffffffffffffffffffffffffffffffffff1681526020019081526020016000206000018190555082600760003373ffffffffffffffffffffffffffffffffffffffff1673ffffffffffffffffffffffffffffffffffffffff1681526020019081526020016000206002019080519060200190610f89929190612218565b5081600760003373ffffffffffffffffffffffffffffffffffffffff1673ffffffffffffffffffffffffffffffffffffffff1681526020019081526020016000206003018190555080600760003373ffffffffffffffffffffffffffffffffffffffff1673ffffffffffffffffffffffffffffffffffffffff1681526020019081526020016000206004019080519060200190611027929190612298565b506064600560003373ffffffffffffffffffffffffffffffffffffffff1673ffffffffffffffffffffffffffffffffffffffff168152602001908152602001600020819055507fe85b4f33503fb0397969144ea67288be9c0cce3f929e5f1aa4465a8e6e5118688484848460016040516110a5959493929190612fab565b60405180910390a150505050565b60005481565b60015481565b6110ca838286611160565b508173ffffffffffffffffffffffffffffffffffffffff166108fc349081150290604051600060405180830381858888f19350505050158015611111573d6000803e3d6000fd5b5061111d8282876105de565b507f8a343dbdf7f5b6bc3f4078205c4f074c9645682b77d3322dd4084cbc0f943bab83838360405161115193929190612d2d565b60405180910390a15050505050565b60006003828154811061116f57fe5b9060005260206000209060070201600601548311156111c3576040517f08c379a00000000000000000000000000000000000000000000000000000000081526004016111ba90612e40565b60405180910390fd5b82600383815481106111d157fe5b9060005260206000209060070201600601600082825403925050819055507f1645bc385806bd472276f1f751ecfe0ee20d0ffd7d8ee85761562bdb01e54e6a8484604051611220929190612d64565b60405180910390a16003828154811061123557fe5b90600052602060002090600702016006015490509392505050565b60006004828154811061125f57fe5b9060005260206000209060080201600701549050919050565b60006003828154811061128757fe5b9060005260206000209060070201600601549050919050565b60606003805480602002602001604051908101604052809291908181526020016000905b8282101561151057838290600052602060002090600702016040518060e0016040529081600082015481526020016001820160009054906101000a900473ffffffffffffffffffffffffffffffffffffffff1673ffffffffffffffffffffffffffffffffffffffff1673ffffffffffffffffffffffffffffffffffffffff168152602001600282018054600181600116156101000203166002900480601f0160208091040260200160405190810160405280929190818152602001828054600181600116156101000203166002900480156113e05780601f106113b5576101008083540402835291602001916113e0565b820191906000526020600020905b8154815290600101906020018083116113c357829003601f168201915b505050505081526020016003820154815260200160048201805480602002602001604051908101604052809291908181526020016000905b828210156114d4578382906000526020600020018054600181600116156101000203166002900480601f0160208091040260200160405190810160405280929190818152602001828054600181600116156101000203166002900480156114c05780601f10611495576101008083540402835291602001916114c0565b820191906000526020600020905b8154815290600101906020018083116114a357829003601f168201915b505050505081526020019060010190611418565b5050505081526020016005820160009054906101000a900460ff16151515158152602001600682015481525050815260200190600101906112c4565b50505050905090565b60008081548092919060010191905055506060606460405190808252806020026020018201604052801561156157816020015b606081526020019060019003908161154c5790505b509050600460405180610100016040528060005481526020013373ffffffffffffffffffffffffffffffffffffffff168152602001868152602001848152602001600081526020018581526020018381526020016000815250908060018154018082558091505090600182039060005260206000209060080201600090919290919091506000820151816000015560208201518160010160006101000a81548173ffffffffffffffffffffffffffffffffffffffff021916908373ffffffffffffffffffffffffffffffffffffffff1602179055506040820151816002019080519060200190611652929190612138565b50606082015181600301908051906020019061166f929190612138565b506080820151816004015560a0820151816005019080519060200190611696929190612138565b5060c08201518160060190805190602001906116b39291906121b8565b5060e08201518160070155505050600054600660003373ffffffffffffffffffffffffffffffffffffffff1673ffffffffffffffffffffffffffffffffffffffff1681526020019081526020016000206000018190555083600660003373ffffffffffffffffffffffffffffffffffffffff1673ffffffffffffffffffffffffffffffffffffffff1681526020019081526020016000206002019080519060200190611760929190612218565b5081600660003373ffffffffffffffffffffffffffffffffffffffff1673ffffffffffffffffffffffffffffffffffffffff16815260200190815260200160002060030190805190602001906117b7929190612218565b506000600660003373ffffffffffffffffffffffffffffffffffffffff1673ffffffffffffffffffffffffffffffffffffffff1681526020019081526020016000206004018190555082600660003373ffffffffffffffffffffffffffffffffffffffff1673ffffffffffffffffffffffffffffffffffffffff1681526020019081526020016000206005019080519060200190611856929190612218565b5080600660003373ffffffffffffffffffffffffffffffffffffffff1673ffffffffffffffffffffffffffffffffffffffff16815260200190815260200160002060060190805190602001906118ad929190612298565b506000600560003373ffffffffffffffffffffffffffffffffffffffff1673ffffffffffffffffffffffffffffffffffffffff168152602001908152602001600020819055507f46b01024b7717ef5be171b6451aeef55b0385c01fc2e2dd4b11c883b06858c2d84846000858560405161192b959493929190612dd1565b60405180910390a150505050565b6119416122f8565b6003828154811061194e57fe5b90600052602060002090600702016040518060e0016040529081600082015481526020016001820160009054906101000a900473ffffffffffffffffffffffffffffffffffffffff1673ffffffffffffffffffffffffffffffffffffffff1673ffffffffffffffffffffffffffffffffffffffff168152602001600282018054600181600116156101000203166002900480601f016020809104026020016040519081016040528092919081815260200182805460018160011615610100020316600290048015611a605780601f10611a3557610100808354040283529160200191611a60565b820191906000526020600020905b815481529060010190602001808311611a4357829003601f168201915b505050505081526020016003820154815260200160048201805480602002602001604051908101604052809291908181526020016000905b82821015611b54578382906000526020600020018054600181600116156101000203166002900480601f016020809104026020016040519081016040528092919081815260200182805460018160011615610100020316600290048015611b405780601f10611b1557610100808354040283529160200191611b40565b820191906000526020600020905b815481529060010190602001808311611b2357829003601f168201915b505050505081526020019060010190611a98565b5050505081526020016005820160009054906101000a900460ff161515151581526020016006820154815250509050919050565b60048181548110611b9557fe5b90600052602060002090600802016000915090508060000154908060010160009054906101000a900473ffffffffffffffffffffffffffffffffffffffff1690806002018054600181600116156101000203166002900480601f016020809104026020016040519081016040528092919081815260200182805460018160011615610100020316600290048015611c6d5780601f10611c4257610100808354040283529160200191611c6d565b820191906000526020600020905b815481529060010190602001808311611c5057829003601f168201915b505050505090806003018054600181600116156101000203166002900480601f016020809104026020016040519081016040528092919081815260200182805460018160011615610100020316600290048015611d0b5780601f10611ce057610100808354040283529160200191611d0b565b820191906000526020600020905b815481529060010190602001808311611cee57829003601f168201915b505050505090806004015490806005018054600181600116156101000203166002900480601f016020809104026020016040519081016040528092919081815260200182805460018160011615610100020316600290048015611daf5780601f10611d8457610100808354040283529160200191611daf565b820191906000526020600020905b815481529060010190602001808311611d9257829003601f168201915b5050505050908060070154905087565b611dc761234d565b60048281548110611dd457fe5b906000526020600020906008020160405180610100016040529081600082015481526020016001820160009054906101000a900473ffffffffffffffffffffffffffffffffffffffff1673ffffffffffffffffffffffffffffffffffffffff1673ffffffffffffffffffffffffffffffffffffffff168152602001600282018054600181600116156101000203166002900480601f016020809104026020016040519081016040528092919081815260200182805460018160011615610100020316600290048015611ee75780601f10611ebc57610100808354040283529160200191611ee7565b820191906000526020600020905b815481529060010190602001808311611eca57829003601f168201915b50505050508152602001600382018054600181600116156101000203166002900480601f016020809104026020016040519081016040528092919081815260200182805460018160011615610100020316600290048015611f895780601f10611f5e57610100808354040283529160200191611f89565b820191906000526020600020905b815481529060010190602001808311611f6c57829003601f168201915b5050505050815260200160048201548152602001600582018054600181600116156101000203166002900480601f0160208091040260200160405190810160405280929190818152602001828054600181600116156101000203166002900480156120355780601f1061200a57610100808354040283529160200191612035565b820191906000526020600020905b81548152906001019060200180831161201857829003601f168201915b5050505050815260200160068201805480602002602001604051908101604052809291908181526020016000905b8282101561211f578382906000526020600020018054600181600116156101000203166002900480601f01602080910402602001604051908101604052809291908181526020018280546001816001161561010002031660029004801561210b5780601f106120e05761010080835404028352916020019161210b565b820191906000526020600020905b8154815290600101906020018083116120ee57829003601f168201915b505050505081526020019060010190612063565b5050505081526020016007820154815250509050919050565b828054600181600116156101000203166002900490600052602060002090601f016020900481019282601f1061217957805160ff19168380011785556121a7565b828001600101855582156121a7579182015b828111156121a657825182559160200191906001019061218b565b5b5090506121b491906123a8565b5090565b828054828255906000526020600020908101928215612207579160200282015b828111156122065782518290805190602001906121f6929190612138565b50916020019190600101906121d8565b5b50905061221491906123cd565b5090565b828054600181600116156101000203166002900490600052602060002090601f016020900481019282601f1061225957805160ff1916838001178555612287565b82800160010185558215612287579182015b8281111561228657825182559160200191906001019061226b565b5b50905061229491906123a8565b5090565b8280548282559060005260206000209081019282156122e7579160200282015b828111156122e65782518290805190602001906122d6929190612138565b50916020019190600101906122b8565b5b5090506122f491906123cd565b5090565b6040518060e0016040528060008152602001600073ffffffffffffffffffffffffffffffffffffffff168152602001606081526020016000815260200160608152602001600015158152602001600081525090565b60405180610100016040528060008152602001600073ffffffffffffffffffffffffffffffffffffffff1681526020016060815260200160608152602001600081526020016060815260200160608152602001600081525090565b6123ca91905b808211156123c65760008160009055506001016123ae565b5090565b90565b6123f691905b808211156123f257600081816123e991906123f9565b506001016123d3565b5090565b90565b50805460018160011615610100020316600290046000825580601f1061241f575061243e565b601f01602090049060005260206000209081019061243d91906123a8565b5b50565b60008135905061245081613276565b92915050565b6000813590506124658161328d565b92915050565b600082601f83011261247c57600080fd5b813561248f61248a82613039565b61300c565b915080825260208301602083018583830111156124ab57600080fd5b6124b6838284613223565b50505092915050565b6000813590506124ce816132a4565b92915050565b6000602082840312156124e657600080fd5b60006124f484828501612441565b91505092915050565b60008060006060848603121561251257600080fd5b600061252086828701612456565b9350506020612531868287016124bf565b9250506040612542868287016124bf565b9150509250925092565b60008060006060848603121561256157600080fd5b600084013567ffffffffffffffff81111561257b57600080fd5b6125878682870161246b565b935050602084013567ffffffffffffffff8111156125a457600080fd5b6125b08682870161246b565b925050604084013567ffffffffffffffff8111156125cd57600080fd5b6125d98682870161246b565b9150509250925092565b6000602082840312156125f557600080fd5b6000612603848285016124bf565b91505092915050565b60008060006060848603121561262157600080fd5b600061262f868287016124bf565b935050602084013567ffffffffffffffff81111561264c57600080fd5b6126588682870161246b565b9250506040612669868287016124bf565b9150509250925092565b600080600080600060a0868803121561268b57600080fd5b6000612699888289016124bf565b95505060206126aa888289016124bf565b94505060406126bb88828901612456565b93505060606126cc88828901612456565b92505060806126dd888289016124bf565b9150509295509295909350565b60006126f6838361298d565b905092915050565b600061270a8383612b04565b905092915050565b600061271e8383612c6c565b905092915050565b61272f816131db565b82525050565b61273e81613181565b82525050565b61274d81613181565b82525050565b600061275e826130b0565b612768818561312c565b93508360208202850161277a85613075565b8060005b858110156127b6578484038952815161279785826126ea565b94506127a2836130f4565b925060208a0199505060018101905061277e565b50829750879550505050505092915050565b60006127d3826130a5565b6127dd818561311b565b9350836020820285016127ef85613065565b8060005b8581101561282b578484038952815161280c85826126ea565b9450612817836130e7565b925060208a019950506001810190506127f3565b50829750879550505050505092915050565b6000612848826130bb565b612852818561313d565b93508360208202850161286485613085565b8060005b858110156128a0578484038952815161288185826126fe565b945061288c83613101565b925060208a01995050600181019050612868565b50829750879550505050505092915050565b60006128bd826130c6565b6128c7818561314e565b9350836020820285016128d985613095565b8060005b8581101561291557848403895281516128f68582612712565b94506129018361310e565b925060208a019950506001810190506128dd565b50829750879550505050505092915050565b612930816131a5565b82525050565b61293f816131a5565b82525050565b61294e816131ed565b82525050565b600061295f826130dc565b6129698185613170565b9350612979818560208601613232565b61298281613265565b840191505092915050565b6000612998826130d1565b6129a2818561315f565b93506129b2818560208601613232565b6129bb81613265565b840191505092915050565b60006129d1826130d1565b6129db8185613170565b93506129eb818560208601613232565b6129f481613265565b840191505092915050565b6000612a0c600c83613170565b91507f49276d20616e206572726f7200000000000000000000000000000000000000006000830152602082019050919050565b600061010083016000830151612a586000860182612d0f565b506020830151612a6b6020860182612735565b5060408301518482036040860152612a83828261298d565b91505060608301518482036060860152612a9d828261298d565b9150506080830151612ab26080860182612d0f565b5060a083015184820360a0860152612aca828261298d565b91505060c083015184820360c0860152612ae482826127c8565b91505060e0830151612af960e0860182612d0f565b508091505092915050565b600061010083016000830151612b1d6000860182612d0f565b506020830151612b306020860182612735565b5060408301518482036040860152612b48828261298d565b91505060608301518482036060860152612b62828261298d565b9150506080830151612b776080860182612d0f565b5060a083015184820360a0860152612b8f828261298d565b91505060c083015184820360c0860152612ba982826127c8565b91505060e0830151612bbe60e0860182612d0f565b508091505092915050565b600060e083016000830151612be16000860182612d0f565b506020830151612bf46020860182612735565b5060408301518482036040860152612c0c828261298d565b9150506060830151612c216060860182612d0f565b5060808301518482036080860152612c3982826127c8565b91505060a0830151612c4e60a0860182612927565b5060c0830151612c6160c0860182612d0f565b508091505092915050565b600060e083016000830151612c846000860182612d0f565b506020830151612c976020860182612735565b5060408301518482036040860152612caf828261298d565b9150506060830151612cc46060860182612d0f565b5060808301518482036080860152612cdc82826127c8565b91505060a0830151612cf160a0860182612927565b5060c0830151612d0460c0860182612d0f565b508091505092915050565b612d18816131d1565b82525050565b612d27816131d1565b82525050565b6000606082019050612d426000830186612726565b612d4f6020830185612726565b612d5c6040830184612d1e565b949350505050565b6000604082019050612d796000830185612726565b612d866020830184612d1e565b9392505050565b60006020820190508181036000830152612da7818461283d565b905092915050565b60006020820190508181036000830152612dc981846128b2565b905092915050565b600060a0820190508181036000830152612deb8188612954565b90508181036020830152612dff8187612954565b9050612e0e6040830186612945565b8181036060830152612e208185612954565b90508181036080830152612e348184612753565b90509695505050505050565b60006020820190508181036000830152612e59816129ff565b9050919050565b60006020820190508181036000830152612e7a8184612a3f565b905092915050565b60006020820190508181036000830152612e9c8184612bc9565b905092915050565b6000602082019050612eb96000830184612d1e565b92915050565b600060e082019050612ed4600083018a612d1e565b612ee16020830189612744565b8181036040830152612ef381886129c6565b90508181036060830152612f0781876129c6565b9050612f166080830186612d1e565b81810360a0830152612f2881856129c6565b9050612f3760c0830184612d1e565b98975050505050505050565b600060c082019050612f586000830189612d1e565b612f656020830188612744565b8181036040830152612f7781876129c6565b9050612f866060830186612d1e565b612f936080830185612936565b612fa060a0830184612d1e565b979650505050505050565b600060a082019050612fc06000830188612d1e565b8181036020830152612fd28187612954565b9050612fe16040830186612d1e565b8181036060830152612ff38185612753565b90506130026080830184612936565b9695505050505050565b6000604051905081810181811067ffffffffffffffff8211171561302f57600080fd5b8060405250919050565b600067ffffffffffffffff82111561305057600080fd5b601f19601f8301169050602081019050919050565b6000819050602082019050919050565b6000819050602082019050919050565b6000819050602082019050919050565b6000819050602082019050919050565b600081519050919050565b600081519050919050565b600081519050919050565b600081519050919050565b600081519050919050565b600081519050919050565b6000602082019050919050565b6000602082019050919050565b6000602082019050919050565b6000602082019050919050565b600082825260208201905092915050565b600082825260208201905092915050565b600082825260208201905092915050565b600082825260208201905092915050565b600082825260208201905092915050565b600082825260208201905092915050565b600061318c826131b1565b9050919050565b600061319e826131b1565b9050919050565b60008115159050919050565b600073ffffffffffffffffffffffffffffffffffffffff82169050919050565b6000819050919050565b60006131e6826131ff565b9050919050565b60006131f8826131d1565b9050919050565b600061320a82613211565b9050919050565b600061321c826131b1565b9050919050565b82818337600083830152505050565b60005b83811015613250578082015181840152602081019050613235565b8381111561325f576000848401525b50505050565b6000601f19601f8301169050919050565b61327f81613181565b811461328a57600080fd5b50565b61329681613193565b81146132a157600080fd5b50565b6132ad816131d1565b81146132b857600080fd5b5056fea365627a7a72315820dc9f5dc9136f0c2424d83e7dea82d2cac50e97631eff86b4a92f58acb320cf6b6c6578706572696d656e74616cf564736f6c63430005100040",
  "source": "pragma solidity <=0.8.11;\r\npragma experimental ABIEncoderV2;\r\ncontract Donation{\r\n    uint public charityCount=0;\r\n    uint public donorsCount=0;\r\n    address payable[] charityAddresses;\r\n    DonorsInfo[] public donors;\r\n    Charity[] public charities;\r\n    mapping (address=>uint) public balances;\r\n    mapping (address=> Charity) public charitym;\r\n    mapping (address=> DonorsInfo) public donorm;\r\n   \r\n    struct Charity{\r\n        uint id;\r\n        address charityaddr;\r\n        string name;\r\n        string date;\r\n        uint amountReceived;\r\n        string description;\r\n        string[] history;\r\n        uint balance;\r\n    }\r\n\r\n    struct DonorsInfo{\r\n        uint id;\r\n        address donoraddr;\r\n        string name;\r\n        uint amountDonated;\r\n        string[] history;\r\n        bool transfered;\r\n        uint balance;\r\n\r\n    }\r\n\r\n    event getCharitiesEv();\r\n    event getCharityEv(uint id);\r\n    event addCharityEv(string name, string description,  uint amountReceived, string date, string[] history);\r\n    event getDonorsEv();\r\n    event getDonorEv(uint id);\r\n    event addDonorEv(uint charity_id, string name, uint amountDonated, string[] history, bool transfered);\r\n    event donateEv (address fromAddress,  address toAddress, uint amountDonated);\r\n    event depositMade(address charityaddr, uint amountReceived);\r\n    event withdrawalMade(address donoraddr, uint amountDonated);\r\n\r\n    function getCharity(uint id) public view returns (Charity memory) {\r\n        return charities[id];\r\n    }\r\n\r\n    function getCharities() public view returns (Charity[] memory) {\r\n        return charities;\r\n    }\r\n\r\n    function getCharityBalance(uint charity_id) public view returns (uint) {\r\n        return charities[charity_id].balance;\r\n    }\r\n\r\n    function getDonorBalance(uint donor_id) public view returns (uint) {\r\n        return donors[donor_id].balance;\r\n    }\r\n\r\n    function addCharity(string memory name,string memory description, string memory date) public {\r\n        charityCount++;\r\n        string[] memory history=new string[](100);\r\n        charities.push(Charity(charityCount,msg.sender,name,date,0,description,history,0));\r\n        // charitym[msg.sender]=Charity(charityCount,msg.sender,name,date,0,description,history);\r\n        charitym[msg.sender].id = charityCount;\r\n        charitym[msg.sender].name = name;\r\n        charitym[msg.sender].date = date;\r\n        charitym[msg.sender].amountReceived = 0;\r\n        charitym[msg.sender].description = description;\r\n        charitym[msg.sender].history = history;\r\n        balances[msg.sender]=0;\r\n\r\n        emit addCharityEv(name,description,0,date,history);\r\n    }\r\n\r\n    function getdonors() public view returns (DonorsInfo[] memory){\r\n        return donors;\r\n    }\r\n\r\n    function getdonor(uint id) public view returns (DonorsInfo memory){\r\n        return donors[id];\r\n    }\r\n\r\n    function addDonors(uint charity_id,  string memory donorName, uint amountDonated) public {\r\n        donorsCount++;\r\n        string[] memory _history = new string[](10);\r\n        donors.push(DonorsInfo(donorsCount, msg.sender, donorName,amountDonated,_history, true,100));\r\n        donorm[msg.sender].id= donorsCount;\r\n        donorm[msg.sender].name = donorName;\r\n        donorm[msg.sender].amountDonated = amountDonated;\r\n        donorm[msg.sender].history = _history;\r\n        balances[msg.sender]=100;\r\n        // charities[charity_id].history.push(donorName);\r\n        \r\n        emit addDonorEv(charity_id, donorName,  amountDonated, _history,  true);\r\n        \r\n    }\r\n\r\n    function donate(uint charity_id, uint donor_id, address payable fromAddress, address payable toAddress,uint amountDonated) public payable{\r\n        // addDonors(charity_id, donorName, amountDonated);\r\n        withdraw(fromAddress, amountDonated,donor_id);\r\n        toAddress.transfer(msg.value);\r\n        deposit(toAddress, amountDonated,charity_id);\r\n        emit donateEv(fromAddress,  toAddress, amountDonated);\r\n        // uint[] memory amounts = new uint[](2);\r\n        // amounts[0]=withdrawalAmount;\r\n        // amounts[1]=depositedAmount;\r\n        \r\n        // return charities[charity_id].balance;\r\n    }\r\n\r\n    function deposit(address payable charityaddr, uint amountReceived, uint charity_id) public returns (uint){\r\n        charities[charity_id].balance += amountReceived;\r\n        // balances[charityaddr] += amountReceived;\r\n        emit depositMade(charityaddr, amountReceived);\r\n        return charities[charity_id].balance;\r\n    }\r\n    function withdraw(address payable donoraddr, uint amountDonated, uint donor_id) public returns (uint){\r\n        require(amountDonated <= donors[donor_id].balance,\"I'm an error\");\r\n        donors[donor_id].balance -= amountDonated;\r\n        // balances[donoraddr] -= amountDonated;\r\n        // donoraddr.transfer(amountDonated);\r\n        emit withdrawalMade(donoraddr,amountDonated);\r\n        return donors[donor_id].balance;\r\n    }\r\n    \r\n}",
  "sourcePath": "C:\\Users\\HP\\Desktop\\Projects\\Donation_System\\contracts\\Donation.sol",
  "compiler": {
    "name": "solc",
    "version": "0.5.16+commit.9c3226ce.Emscripten.clang"
  },
  "schemaVersion": "3.4.4",
  "updatedAt": "2022-01-13T13:51:22.847Z",
  "devdoc": {
    "methods": {}
  },
  "userdoc": {
    "methods": {}
  }
}