{
  "contractName": "Donation",
  "abi": [
    {
      "constant": true,
      "inputs": [
        {
          "internalType": "uint256",
          "name": "",
          "type": "uint256"
        }
      ],
      "name": "charities",
      "outputs": [
        {
          "internalType": "uint256",
          "name": "id",
          "type": "uint256"
        },
        {
          "internalType": "string",
          "name": "name",
          "type": "string"
        },
        {
          "internalType": "string",
          "name": "date",
          "type": "string"
        },
        {
          "internalType": "uint256",
          "name": "amountReceived",
          "type": "uint256"
        },
        {
          "internalType": "string",
          "name": "description",
          "type": "string"
        }
      ],
      "payable": false,
      "stateMutability": "view",
      "type": "function"
    },
    {
      "constant": true,
      "inputs": [],
      "name": "charityCount",
      "outputs": [
        {
          "internalType": "uint256",
          "name": "",
          "type": "uint256"
        }
      ],
      "payable": false,
      "stateMutability": "view",
      "type": "function"
    },
    {
      "constant": true,
      "inputs": [
        {
          "internalType": "uint256",
          "name": "",
          "type": "uint256"
        }
      ],
      "name": "donors",
      "outputs": [
        {
          "internalType": "uint256",
          "name": "id",
          "type": "uint256"
        },
        {
          "internalType": "string",
          "name": "name",
          "type": "string"
        },
        {
          "internalType": "uint256",
          "name": "amountDonated",
          "type": "uint256"
        },
        {
          "internalType": "bool",
          "name": "transfered",
          "type": "bool"
        }
      ],
      "payable": false,
      "stateMutability": "view",
      "type": "function"
    },
    {
      "constant": true,
      "inputs": [],
      "name": "donorsCount",
      "outputs": [
        {
          "internalType": "uint256",
          "name": "",
          "type": "uint256"
        }
      ],
      "payable": false,
      "stateMutability": "view",
      "type": "function"
    },
    {
      "constant": false,
      "inputs": [
        {
          "internalType": "address payable",
          "name": "charity_address",
          "type": "address"
        }
      ],
      "name": "assignAddresses",
      "outputs": [],
      "payable": false,
      "stateMutability": "nonpayable",
      "type": "function"
    },
    {
      "constant": false,
      "inputs": [],
      "name": "getCharityAddresses",
      "outputs": [
        {
          "internalType": "address payable[]",
          "name": "",
          "type": "address[]"
        }
      ],
      "payable": false,
      "stateMutability": "nonpayable",
      "type": "function"
    },
    {
      "constant": true,
      "inputs": [
        {
          "internalType": "uint256",
          "name": "id",
          "type": "uint256"
        }
      ],
      "name": "getCharity",
      "outputs": [
        {
          "components": [
            {
              "internalType": "uint256",
              "name": "id",
              "type": "uint256"
            },
            {
              "internalType": "string",
              "name": "name",
              "type": "string"
            },
            {
              "internalType": "string",
              "name": "date",
              "type": "string"
            },
            {
              "internalType": "uint256",
              "name": "amountReceived",
              "type": "uint256"
            },
            {
              "internalType": "string",
              "name": "description",
              "type": "string"
            },
            {
              "internalType": "string[]",
              "name": "history",
              "type": "string[]"
            }
          ],
          "internalType": "struct Donation.Charity",
          "name": "",
          "type": "tuple"
        }
      ],
      "payable": false,
      "stateMutability": "view",
      "type": "function"
    },
    {
      "constant": true,
      "inputs": [],
      "name": "getCharities",
      "outputs": [
        {
          "components": [
            {
              "internalType": "uint256",
              "name": "id",
              "type": "uint256"
            },
            {
              "internalType": "string",
              "name": "name",
              "type": "string"
            },
            {
              "internalType": "string",
              "name": "date",
              "type": "string"
            },
            {
              "internalType": "uint256",
              "name": "amountReceived",
              "type": "uint256"
            },
            {
              "internalType": "string",
              "name": "description",
              "type": "string"
            },
            {
              "internalType": "string[]",
              "name": "history",
              "type": "string[]"
            }
          ],
          "internalType": "struct Donation.Charity[]",
          "name": "",
          "type": "tuple[]"
        }
      ],
      "payable": false,
      "stateMutability": "view",
      "type": "function"
    },
    {
      "constant": false,
      "inputs": [
        {
          "internalType": "string",
          "name": "name",
          "type": "string"
        },
        {
          "internalType": "string",
          "name": "description",
          "type": "string"
        },
        {
          "internalType": "string",
          "name": "date",
          "type": "string"
        }
      ],
      "name": "addCharity",
      "outputs": [],
      "payable": false,
      "stateMutability": "nonpayable",
      "type": "function"
    },
    {
      "constant": true,
      "inputs": [],
      "name": "getdonors",
      "outputs": [
        {
          "components": [
            {
              "internalType": "uint256",
              "name": "id",
              "type": "uint256"
            },
            {
              "internalType": "string",
              "name": "name",
              "type": "string"
            },
            {
              "internalType": "uint256",
              "name": "amountDonated",
              "type": "uint256"
            },
            {
              "internalType": "string[]",
              "name": "history",
              "type": "string[]"
            },
            {
              "internalType": "bool",
              "name": "transfered",
              "type": "bool"
            }
          ],
          "internalType": "struct Donation.DonorsInfo[]",
          "name": "",
          "type": "tuple[]"
        }
      ],
      "payable": false,
      "stateMutability": "view",
      "type": "function"
    },
    {
      "constant": true,
      "inputs": [
        {
          "internalType": "uint256",
          "name": "id",
          "type": "uint256"
        }
      ],
      "name": "getdonor",
      "outputs": [
        {
          "components": [
            {
              "internalType": "uint256",
              "name": "id",
              "type": "uint256"
            },
            {
              "internalType": "string",
              "name": "name",
              "type": "string"
            },
            {
              "internalType": "uint256",
              "name": "amountDonated",
              "type": "uint256"
            },
            {
              "internalType": "string[]",
              "name": "history",
              "type": "string[]"
            },
            {
              "internalType": "bool",
              "name": "transfered",
              "type": "bool"
            }
          ],
          "internalType": "struct Donation.DonorsInfo",
          "name": "",
          "type": "tuple"
        }
      ],
      "payable": false,
      "stateMutability": "view",
      "type": "function"
    },
    {
      "constant": false,
      "inputs": [
        {
          "internalType": "uint256",
          "name": "charity_id",
          "type": "uint256"
        },
        {
          "internalType": "string",
          "name": "donorName",
          "type": "string"
        }
      ],
      "name": "addDonors",
      "outputs": [],
      "payable": false,
      "stateMutability": "nonpayable",
      "type": "function"
    },
    {
      "constant": false,
      "inputs": [
        {
          "internalType": "uint256",
          "name": "charity_id",
          "type": "uint256"
        }
      ],
      "name": "donate",
      "outputs": [],
      "payable": true,
      "stateMutability": "payable",
      "type": "function"
    }
  ],
  "bytecode": "0x608060405260008055600060015534801561001957600080fd5b506121a9806100296000396000f3fe6080604052600436106100c25760003560e01c8063cac3d4a21161007f578063f14faf6f11610059578063f14faf6f14610259578063f55b6cbf14610275578063fb709d2e146102b2578063fd67db81146102f3576100c2565b8063cac3d4a2146101dc578063e51cea7e14610205578063f12d85e514610230576100c2565b806348112c6f146100c75780634abfa163146100f25780635f6332c0146101325780637a5de53d1461015b57806391329493146101865780639ff534dc146101b1575b600080fd5b3480156100d357600080fd5b506100dc610330565b6040516100e99190611ddc565b60405180910390f35b3480156100fe57600080fd5b5061011960048036036101149190810190611839565b610672565b6040516101299493929190611ee7565b60405180910390f35b34801561013e57600080fd5b5061015960048036036101549190810190611862565b610754565b005b34801561016757600080fd5b506101706108bb565b60405161017d9190611dba565b60405180910390f35b34801561019257600080fd5b5061019b610949565b6040516101a89190611e64565b60405180910390f35b3480156101bd57600080fd5b506101c661094f565b6040516101d39190611e64565b60405180910390f35b3480156101e857600080fd5b5061020360048036036101fe9190810190611779565b610955565b005b34801561021157600080fd5b5061021a6109b0565b6040516102279190611dfe565b60405180910390f35b34801561023c57600080fd5b50610257600480360361025291908101906117a2565b610bc9565b005b610273600480360361026e9190810190611839565b610d02565b005b34801561028157600080fd5b5061029c60048036036102979190810190611839565b610d89565b6040516102a99190611e42565b60405180910390f35b3480156102be57600080fd5b506102d960048036036102d49190810190611839565b610f78565b6040516102ea959493929190611e7f565b60405180910390f35b3480156102ff57600080fd5b5061031a60048036036103159190810190611839565b611183565b6040516103279190611e20565b60405180910390f35b60606004805480602002602001604051908101604052809291908181526020016000905b8282101561066957838290600052602060002090600602016040518060c001604052908160008201548152602001600182018054600181600116156101000203166002900480601f01602080910402602001604051908101604052809291908181526020018280546001816001161561010002031660029004801561041a5780601f106103ef5761010080835404028352916020019161041a565b820191906000526020600020905b8154815290600101906020018083116103fd57829003601f168201915b50505050508152602001600282018054600181600116156101000203166002900480601f0160208091040260200160405190810160405280929190818152602001828054600181600116156101000203166002900480156104bc5780601f10610491576101008083540402835291602001916104bc565b820191906000526020600020905b81548152906001019060200180831161049f57829003601f168201915b5050505050815260200160038201548152602001600482018054600181600116156101000203166002900480601f0160208091040260200160405190810160405280929190818152602001828054600181600116156101000203166002900480156105685780601f1061053d57610100808354040283529160200191610568565b820191906000526020600020905b81548152906001019060200180831161054b57829003601f168201915b5050505050815260200160058201805480602002602001604051908101604052809291908181526020016000905b82821015610652578382906000526020600020018054600181600116156101000203166002900480601f01602080910402602001604051908101604052809291908181526020018280546001816001161561010002031660029004801561063e5780601f106106135761010080835404028352916020019161063e565b820191906000526020600020905b81548152906001019060200180831161062157829003601f168201915b505050505081526020019060010190610596565b505050508152505081526020019060010190610354565b50505050905090565b6003818154811061067f57fe5b9060005260206000209060050201600091509050806000015490806001018054600181600116156101000203166002900480601f0160208091040260200160405190810160405280929190818152602001828054600181600116156101000203166002900480156107315780601f1061070657610100808354040283529160200191610731565b820191906000526020600020905b81548152906001019060200180831161071457829003601f168201915b5050505050908060020154908060040160009054906101000a900460ff16905084565b6001600081548092919060010191905055506060606460405190808252806020026020018201604052801561079d57816020015b60608152602001906001900390816107885790505b5090506040518060a00160405280600154815260200183815260200160008152602001828152602001600015158152506003600154815481106107dc57fe5b906000526020600020906005020160008201518160000155602082015181600101908051906020019061081092919061149b565b5060408201518160020155606082015181600301908051906020019061083792919061151b565b5060808201518160040160006101000a81548160ff0219169083151502179055509050506004838154811061086857fe5b90600052602060002090600602016005018290806001815401808255809150509060018203906000526020600020016000909192909190915090805190602001906108b492919061157b565b5050505050565b6060600280548060200260200160405190810160405280929190818152602001828054801561093f57602002820191906000526020600020905b8160009054906101000a900473ffffffffffffffffffffffffffffffffffffffff1673ffffffffffffffffffffffffffffffffffffffff16815260200190600101908083116108f5575b5050505050905090565b60005481565b60015481565b8060026000548154811061096557fe5b9060005260206000200160006101000a81548173ffffffffffffffffffffffffffffffffffffffff021916908373ffffffffffffffffffffffffffffffffffffffff16021790555050565b60606003805480602002602001604051908101604052809291908181526020016000905b82821015610bc057838290600052602060002090600502016040518060a001604052908160008201548152602001600182018054600181600116156101000203166002900480601f016020809104026020016040519081016040528092919081815260200182805460018160011615610100020316600290048015610a9a5780601f10610a6f57610100808354040283529160200191610a9a565b820191906000526020600020905b815481529060010190602001808311610a7d57829003601f168201915b505050505081526020016002820154815260200160038201805480602002602001604051908101604052809291908181526020016000905b82821015610b8e578382906000526020600020018054600181600116156101000203166002900480601f016020809104026020016040519081016040528092919081815260200182805460018160011615610100020316600290048015610b7a5780601f10610b4f57610100808354040283529160200191610b7a565b820191906000526020600020905b815481529060010190602001808311610b5d57829003601f168201915b505050505081526020019060010190610ad2565b5050505081526020016004820160009054906101000a900460ff161515151581525050815260200190600101906109d4565b50505050905090565b600080815480929190600101919050555060606064604051908082528060200260200182016040528015610c1157816020015b6060815260200190600190039081610bfc5790505b50905060046040518060c001604052806000548152602001868152602001848152602001600081526020018581526020018381525090806001815401808255809150509060018203906000526020600020906006020160009091929091909150600082015181600001556020820151816001019080519060200190610c9792919061149b565b506040820151816002019080519060200190610cb492919061149b565b50606082015181600301556080820151816004019080519060200190610cdb92919061149b565b5060a0820151816005019080519060200190610cf892919061151b565b5050505050505050565b600060028281548110610d1157fe5b9060005260206000200160009054906101000a900473ffffffffffffffffffffffffffffffffffffffff1690508073ffffffffffffffffffffffffffffffffffffffff166108fc349081150290604051600060405180830381858888f19350505050158015610d84573d6000803e3d6000fd5b505050565b610d916115fb565b60038281548110610d9e57fe5b90600052602060002090600502016040518060a001604052908160008201548152602001600182018054600181600116156101000203166002900480601f016020809104026020016040519081016040528092919081815260200182805460018160011615610100020316600290048015610e5a5780601f10610e2f57610100808354040283529160200191610e5a565b820191906000526020600020905b815481529060010190602001808311610e3d57829003601f168201915b505050505081526020016002820154815260200160038201805480602002602001604051908101604052809291908181526020016000905b82821015610f4e578382906000526020600020018054600181600116156101000203166002900480601f016020809104026020016040519081016040528092919081815260200182805460018160011615610100020316600290048015610f3a5780601f10610f0f57610100808354040283529160200191610f3a565b820191906000526020600020905b815481529060010190602001808311610f1d57829003601f168201915b505050505081526020019060010190610e92565b5050505081526020016004820160009054906101000a900460ff1615151515815250509050919050565b60048181548110610f8557fe5b9060005260206000209060060201600091509050806000015490806001018054600181600116156101000203166002900480601f0160208091040260200160405190810160405280929190818152602001828054600181600116156101000203166002900480156110375780601f1061100c57610100808354040283529160200191611037565b820191906000526020600020905b81548152906001019060200180831161101a57829003601f168201915b505050505090806002018054600181600116156101000203166002900480601f0160208091040260200160405190810160405280929190818152602001828054600181600116156101000203166002900480156110d55780601f106110aa576101008083540402835291602001916110d5565b820191906000526020600020905b8154815290600101906020018083116110b857829003601f168201915b505050505090806003015490806004018054600181600116156101000203166002900480601f0160208091040260200160405190810160405280929190818152602001828054600181600116156101000203166002900480156111795780601f1061114e57610100808354040283529160200191611179565b820191906000526020600020905b81548152906001019060200180831161115c57829003601f168201915b5050505050905085565b61118b61162c565b6004828154811061119857fe5b90600052602060002090600602016040518060c001604052908160008201548152602001600182018054600181600116156101000203166002900480601f0160208091040260200160405190810160405280929190818152602001828054600181600116156101000203166002900480156112545780601f1061122957610100808354040283529160200191611254565b820191906000526020600020905b81548152906001019060200180831161123757829003601f168201915b50505050508152602001600282018054600181600116156101000203166002900480601f0160208091040260200160405190810160405280929190818152602001828054600181600116156101000203166002900480156112f65780601f106112cb576101008083540402835291602001916112f6565b820191906000526020600020905b8154815290600101906020018083116112d957829003601f168201915b5050505050815260200160038201548152602001600482018054600181600116156101000203166002900480601f0160208091040260200160405190810160405280929190818152602001828054600181600116156101000203166002900480156113a25780601f10611377576101008083540402835291602001916113a2565b820191906000526020600020905b81548152906001019060200180831161138557829003601f168201915b5050505050815260200160058201805480602002602001604051908101604052809291908181526020016000905b8282101561148c578382906000526020600020018054600181600116156101000203166002900480601f0160208091040260200160405190810160405280929190818152602001828054600181600116156101000203166002900480156114785780601f1061144d57610100808354040283529160200191611478565b820191906000526020600020905b81548152906001019060200180831161145b57829003601f168201915b5050505050815260200190600101906113d0565b50505050815250509050919050565b828054600181600116156101000203166002900490600052602060002090601f016020900481019282601f106114dc57805160ff191683800117855561150a565b8280016001018555821561150a579182015b828111156115095782518255916020019190600101906114ee565b5b5090506115179190611662565b5090565b82805482825590600052602060002090810192821561156a579160200282015b8281111561156957825182908051906020019061155992919061149b565b509160200191906001019061153b565b5b5090506115779190611687565b5090565b828054600181600116156101000203166002900490600052602060002090601f016020900481019282601f106115bc57805160ff19168380011785556115ea565b828001600101855582156115ea579182015b828111156115e95782518255916020019190600101906115ce565b5b5090506115f79190611662565b5090565b6040518060a00160405280600081526020016060815260200160008152602001606081526020016000151581525090565b6040518060c001604052806000815260200160608152602001606081526020016000815260200160608152602001606081525090565b61168491905b80821115611680576000816000905550600101611668565b5090565b90565b6116b091905b808211156116ac57600081816116a391906116b3565b5060010161168d565b5090565b90565b50805460018160011615610100020316600290046000825580601f106116d957506116f8565b601f0160209004906000526020600020908101906116f79190611662565b5b50565b60008135905061170a81612138565b92915050565b600082601f83011261172157600080fd5b813561173461172f82611f60565b611f33565b9150808252602083016020830185838301111561175057600080fd5b61175b8382846120e5565b50505092915050565b6000813590506117738161214f565b92915050565b60006020828403121561178b57600080fd5b6000611799848285016116fb565b91505092915050565b6000806000606084860312156117b757600080fd5b600084013567ffffffffffffffff8111156117d157600080fd5b6117dd86828701611710565b935050602084013567ffffffffffffffff8111156117fa57600080fd5b61180686828701611710565b925050604084013567ffffffffffffffff81111561182357600080fd5b61182f86828701611710565b9150509250925092565b60006020828403121561184b57600080fd5b600061185984828501611764565b91505092915050565b6000806040838503121561187557600080fd5b600061188385828601611764565b925050602083013567ffffffffffffffff8111156118a057600080fd5b6118ac85828601611710565b9150509250929050565b60006118c2838361190a565b60208301905092915050565b60006118da8383611af4565b905092915050565b60006118ee8383611c04565b905092915050565b60006119028383611d1f565b905092915050565b6119138161209d565b82525050565b600061192482611fcc565b61192e8185612037565b935061193983611f8c565b8060005b8381101561196a57815161195188826118b6565b975061195c83612003565b92505060018101905061193d565b5085935050505092915050565b600061198282611fd7565b61198c8185612048565b93508360208202850161199e85611f9c565b8060005b858110156119da57848403895281516119bb85826118ce565b94506119c683612010565b925060208a019950506001810190506119a2565b50829750879550505050505092915050565b60006119f782611fe2565b611a018185612059565b935083602082028501611a1385611fac565b8060005b85811015611a4f5784840389528151611a3085826118e2565b9450611a3b8361201d565b925060208a01995050600181019050611a17565b50829750879550505050505092915050565b6000611a6c82611fed565b611a76818561206a565b935083602082028501611a8885611fbc565b8060005b85811015611ac45784840389528151611aa585826118f6565b9450611ab08361202a565b925060208a01995050600181019050611a8c565b50829750879550505050505092915050565b611adf816120af565b82525050565b611aee816120af565b82525050565b6000611aff82611ff8565b611b09818561207b565b9350611b198185602086016120f4565b611b2281612127565b840191505092915050565b6000611b3882611ff8565b611b42818561208c565b9350611b528185602086016120f4565b611b5b81612127565b840191505092915050565b600060c083016000830151611b7e6000860182611d9c565b5060208301518482036020860152611b968282611af4565b91505060408301518482036040860152611bb08282611af4565b9150506060830151611bc56060860182611d9c565b5060808301518482036080860152611bdd8282611af4565b91505060a083015184820360a0860152611bf78282611977565b9150508091505092915050565b600060c083016000830151611c1c6000860182611d9c565b5060208301518482036020860152611c348282611af4565b91505060408301518482036040860152611c4e8282611af4565b9150506060830151611c636060860182611d9c565b5060808301518482036080860152611c7b8282611af4565b91505060a083015184820360a0860152611c958282611977565b9150508091505092915050565b600060a083016000830151611cba6000860182611d9c565b5060208301518482036020860152611cd28282611af4565b9150506040830151611ce76040860182611d9c565b5060608301518482036060860152611cff8282611977565b9150506080830151611d146080860182611ad6565b508091505092915050565b600060a083016000830151611d376000860182611d9c565b5060208301518482036020860152611d4f8282611af4565b9150506040830151611d646040860182611d9c565b5060608301518482036060860152611d7c8282611977565b9150506080830151611d916080860182611ad6565b508091505092915050565b611da5816120db565b82525050565b611db4816120db565b82525050565b60006020820190508181036000830152611dd48184611919565b905092915050565b60006020820190508181036000830152611df681846119ec565b905092915050565b60006020820190508181036000830152611e188184611a61565b905092915050565b60006020820190508181036000830152611e3a8184611b66565b905092915050565b60006020820190508181036000830152611e5c8184611ca2565b905092915050565b6000602082019050611e796000830184611dab565b92915050565b600060a082019050611e946000830188611dab565b8181036020830152611ea68187611b2d565b90508181036040830152611eba8186611b2d565b9050611ec96060830185611dab565b8181036080830152611edb8184611b2d565b90509695505050505050565b6000608082019050611efc6000830187611dab565b8181036020830152611f0e8186611b2d565b9050611f1d6040830185611dab565b611f2a6060830184611ae5565b95945050505050565b6000604051905081810181811067ffffffffffffffff82111715611f5657600080fd5b8060405250919050565b600067ffffffffffffffff821115611f7757600080fd5b601f19601f8301169050602081019050919050565b6000819050602082019050919050565b6000819050602082019050919050565b6000819050602082019050919050565b6000819050602082019050919050565b600081519050919050565b600081519050919050565b600081519050919050565b600081519050919050565b600081519050919050565b6000602082019050919050565b6000602082019050919050565b6000602082019050919050565b6000602082019050919050565b600082825260208201905092915050565b600082825260208201905092915050565b600082825260208201905092915050565b600082825260208201905092915050565b600082825260208201905092915050565b600082825260208201905092915050565b60006120a8826120bb565b9050919050565b60008115159050919050565b600073ffffffffffffffffffffffffffffffffffffffff82169050919050565b6000819050919050565b82818337600083830152505050565b60005b838110156121125780820151818401526020810190506120f7565b83811115612121576000848401525b50505050565b6000601f19601f8301169050919050565b6121418161209d565b811461214c57600080fd5b50565b612158816120db565b811461216357600080fd5b5056fea365627a7a7231582066b65f1b411c0ff7e4d9ea95431bbdf6fdaa7a6eb31fa1052eda9e59adeeeced6c6578706572696d656e74616cf564736f6c63430005100040",
  "source": "pragma solidity <=0.8.11;\r\npragma experimental ABIEncoderV2;\r\ncontract Donation{\r\n    uint public charityCount=0;\r\n    uint public donorsCount=0;\r\n    address payable[] charityAddresses;\r\n    DonorsInfo[] public donors;\r\n    Charity[] public charities;\r\n    // address payable charityAddresses[0]=\"0x44f231a56a8F23e9556638748c47C3b07e3abef4\";\r\n    // address payable charityAddresses[1]=\"0xb335695C56dA81a5710838fE0b4121d32E54dBF2\";\r\n    // address payable charityAddresses[2]=\"0xF4015f33142be961A1CA237Da0B341460e8c01ce\";\r\n    // address payable charityAddresses[3]=\"0x29CDF3A8C37EEfD45EA5DFcbb97FD30fC490a868\";\r\n    // address payable charityAddresses[4]=\"0x7cA41FF7D046Eb48e7382a25aE29AB724AA915E9\";\r\n\r\n    struct Charity{\r\n        uint id;\r\n        string name;\r\n        string date;\r\n        uint amountReceived;\r\n        string description;\r\n        string[] history;\r\n    }\r\n\r\n    struct DonorsInfo{\r\n        uint id;\r\n        string name;\r\n        uint amountDonated;\r\n        string[] history;\r\n        bool transfered;\r\n    }\r\n\r\n    function assignAddresses(address payable charity_address) public{\r\n        charityAddresses[charityCount]= charity_address;\r\n    }\r\n\r\n    function getCharityAddresses() public returns (address payable[] memory){\r\n        return charityAddresses;\r\n    }\r\n\r\n    function getCharity(uint id) public view returns (Charity memory) {\r\n        return charities[id];\r\n    }\r\n\r\n    function getCharities() public view returns (Charity[] memory) {\r\n        return charities;\r\n    }\r\n\r\n    function addCharity(string memory name,string memory description, string memory date) public {\r\n        charityCount++;\r\n        string[] memory history=new string[](100);\r\n        charities.push(Charity(charityCount,name,date,0,description,history));\r\n        \r\n    }\r\n\r\n    function getdonors() public view returns (DonorsInfo[] memory){\r\n        return donors;\r\n    }\r\n\r\n    function getdonor(uint id) public view returns (DonorsInfo memory){\r\n        return donors[id];\r\n    }\r\n\r\n    function addDonors(uint charity_id,string memory donorName) public {\r\n        donorsCount++;\r\n        string[] memory _history = new string[](100);\r\n        donors[donorsCount] = DonorsInfo(donorsCount,donorName,0,_history, false);\r\n        charities[charity_id].history.push(donorName);\r\n    }\r\n\r\n    function donate(uint charity_id) payable public{\r\n        address payable charityAddress= charityAddresses[charity_id];\r\n        charityAddress.transfer(msg.value);\r\n    }\r\n}",
  "sourcePath": "C:\\Users\\HP\\Desktop\\Projects\\Donation_System\\contracts\\Donation.sol",
  "compiler": {
    "name": "solc",
    "version": "0.5.16+commit.9c3226ce.Emscripten.clang"
  },
  "schemaVersion": "3.4.4",
  "updatedAt": "2022-01-12T12:30:02.291Z",
  "networkType": "ethereum",
  "devdoc": {
    "methods": {}
  },
  "userdoc": {
    "methods": {}
  }
}