{
  "contractName": "Donation",
  "abi": [
    {
      "constant": true,
      "inputs": [
        {
          "internalType": "uint256",
          "name": "",
          "type": "uint256"
        }
      ],
      "name": "charities",
      "outputs": [
        {
          "internalType": "uint256",
          "name": "id",
          "type": "uint256"
        },
        {
          "internalType": "string",
          "name": "name",
          "type": "string"
        },
        {
          "internalType": "string",
          "name": "date",
          "type": "string"
        },
        {
          "internalType": "uint256",
          "name": "amountReceived",
          "type": "uint256"
        },
        {
          "internalType": "string",
          "name": "description",
          "type": "string"
        }
      ],
      "payable": false,
      "stateMutability": "view",
      "type": "function"
    },
    {
      "constant": true,
      "inputs": [],
      "name": "charityCount",
      "outputs": [
        {
          "internalType": "uint256",
          "name": "",
          "type": "uint256"
        }
      ],
      "payable": false,
      "stateMutability": "view",
      "type": "function"
    },
    {
      "constant": true,
      "inputs": [
        {
          "internalType": "uint256",
          "name": "",
          "type": "uint256"
        }
      ],
      "name": "donors",
      "outputs": [
        {
          "internalType": "uint256",
          "name": "id",
          "type": "uint256"
        },
        {
          "internalType": "string",
          "name": "name",
          "type": "string"
        },
        {
          "internalType": "uint256",
          "name": "amountDonated",
          "type": "uint256"
        },
        {
          "internalType": "bool",
          "name": "transfered",
          "type": "bool"
        }
      ],
      "payable": false,
      "stateMutability": "view",
      "type": "function"
    },
    {
      "constant": true,
      "inputs": [],
      "name": "donorsCount",
      "outputs": [
        {
          "internalType": "uint256",
          "name": "",
          "type": "uint256"
        }
      ],
      "payable": false,
      "stateMutability": "view",
      "type": "function"
    },
    {
      "constant": true,
      "inputs": [
        {
          "internalType": "uint256",
          "name": "id",
          "type": "uint256"
        }
      ],
      "name": "getCharity",
      "outputs": [
        {
          "components": [
            {
              "internalType": "uint256",
              "name": "id",
              "type": "uint256"
            },
            {
              "internalType": "string",
              "name": "name",
              "type": "string"
            },
            {
              "internalType": "string",
              "name": "date",
              "type": "string"
            },
            {
              "internalType": "uint256",
              "name": "amountReceived",
              "type": "uint256"
            },
            {
              "internalType": "string",
              "name": "description",
              "type": "string"
            },
            {
              "internalType": "string[]",
              "name": "history",
              "type": "string[]"
            }
          ],
          "internalType": "struct Donation.Charity",
          "name": "",
          "type": "tuple"
        }
      ],
      "payable": false,
      "stateMutability": "view",
      "type": "function"
    },
    {
      "constant": true,
      "inputs": [],
      "name": "getCharities",
      "outputs": [
        {
          "components": [
            {
              "internalType": "uint256",
              "name": "id",
              "type": "uint256"
            },
            {
              "internalType": "string",
              "name": "name",
              "type": "string"
            },
            {
              "internalType": "string",
              "name": "date",
              "type": "string"
            },
            {
              "internalType": "uint256",
              "name": "amountReceived",
              "type": "uint256"
            },
            {
              "internalType": "string",
              "name": "description",
              "type": "string"
            },
            {
              "internalType": "string[]",
              "name": "history",
              "type": "string[]"
            }
          ],
          "internalType": "struct Donation.Charity[]",
          "name": "",
          "type": "tuple[]"
        }
      ],
      "payable": false,
      "stateMutability": "view",
      "type": "function"
    },
    {
      "constant": false,
      "inputs": [
        {
          "internalType": "string",
          "name": "name",
          "type": "string"
        },
        {
          "internalType": "string",
          "name": "description",
          "type": "string"
        },
        {
          "internalType": "string",
          "name": "date",
          "type": "string"
        }
      ],
      "name": "addCharity",
      "outputs": [],
      "payable": false,
      "stateMutability": "nonpayable",
      "type": "function"
    },
    {
      "constant": true,
      "inputs": [],
      "name": "getdonors",
      "outputs": [
        {
          "components": [
            {
              "internalType": "uint256",
              "name": "id",
              "type": "uint256"
            },
            {
              "internalType": "string",
              "name": "name",
              "type": "string"
            },
            {
              "internalType": "uint256",
              "name": "amountDonated",
              "type": "uint256"
            },
            {
              "internalType": "string[]",
              "name": "history",
              "type": "string[]"
            },
            {
              "internalType": "bool",
              "name": "transfered",
              "type": "bool"
            }
          ],
          "internalType": "struct Donation.DonorsInfo[]",
          "name": "",
          "type": "tuple[]"
        }
      ],
      "payable": false,
      "stateMutability": "view",
      "type": "function"
    },
    {
      "constant": true,
      "inputs": [
        {
          "internalType": "uint256",
          "name": "id",
          "type": "uint256"
        }
      ],
      "name": "getdonor",
      "outputs": [
        {
          "components": [
            {
              "internalType": "uint256",
              "name": "id",
              "type": "uint256"
            },
            {
              "internalType": "string",
              "name": "name",
              "type": "string"
            },
            {
              "internalType": "uint256",
              "name": "amountDonated",
              "type": "uint256"
            },
            {
              "internalType": "string[]",
              "name": "history",
              "type": "string[]"
            },
            {
              "internalType": "bool",
              "name": "transfered",
              "type": "bool"
            }
          ],
          "internalType": "struct Donation.DonorsInfo",
          "name": "",
          "type": "tuple"
        }
      ],
      "payable": false,
      "stateMutability": "view",
      "type": "function"
    },
    {
      "constant": false,
      "inputs": [
        {
          "internalType": "uint256",
          "name": "charity_id",
          "type": "uint256"
        },
        {
          "internalType": "string",
          "name": "donorName",
          "type": "string"
        }
      ],
      "name": "addDonors",
      "outputs": [],
      "payable": false,
      "stateMutability": "nonpayable",
      "type": "function"
    }
  ],
  "bytecode": "0x608060405260008055600060015534801561001957600080fd5b50611dbc806100296000396000f3fe608060405234801561001057600080fd5b506004361061009e5760003560e01c8063e51cea7e11610066578063e51cea7e1461014c578063f12d85e51461016a578063f55b6cbf14610186578063fb709d2e146101b6578063fd67db81146101ea5761009e565b806348112c6f146100a35780634abfa163146100c15780635f6332c0146100f457806391329493146101105780639ff534dc1461012e575b600080fd5b6100ab61021a565b6040516100b89190611a71565b60405180910390f35b6100db60048036036100d69190810190611575565b61055c565b6040516100eb9493929190611b7c565b60405180910390f35b61010e6004803603610109919081019061159e565b61063e565b005b6101186107a5565b6040516101259190611af9565b60405180910390f35b6101366107ab565b6040516101439190611af9565b60405180910390f35b6101546107b1565b6040516101619190611a93565b60405180910390f35b610184600480360361017f91908101906114de565b6109ca565b005b6101a0600480360361019b9190810190611575565b610b03565b6040516101ad9190611ad7565b60405180910390f35b6101d060048036036101cb9190810190611575565b610cf2565b6040516101e1959493929190611b14565b60405180910390f35b61020460048036036101ff9190810190611575565b610efd565b6040516102119190611ab5565b60405180910390f35b60606003805480602002602001604051908101604052809291908181526020016000905b8282101561055357838290600052602060002090600602016040518060c001604052908160008201548152602001600182018054600181600116156101000203166002900480601f0160208091040260200160405190810160405280929190818152602001828054600181600116156101000203166002900480156103045780601f106102d957610100808354040283529160200191610304565b820191906000526020600020905b8154815290600101906020018083116102e757829003601f168201915b50505050508152602001600282018054600181600116156101000203166002900480601f0160208091040260200160405190810160405280929190818152602001828054600181600116156101000203166002900480156103a65780601f1061037b576101008083540402835291602001916103a6565b820191906000526020600020905b81548152906001019060200180831161038957829003601f168201915b5050505050815260200160038201548152602001600482018054600181600116156101000203166002900480601f0160208091040260200160405190810160405280929190818152602001828054600181600116156101000203166002900480156104525780601f1061042757610100808354040283529160200191610452565b820191906000526020600020905b81548152906001019060200180831161043557829003601f168201915b5050505050815260200160058201805480602002602001604051908101604052809291908181526020016000905b8282101561053c578382906000526020600020018054600181600116156101000203166002900480601f0160208091040260200160405190810160405280929190818152602001828054600181600116156101000203166002900480156105285780601f106104fd57610100808354040283529160200191610528565b820191906000526020600020905b81548152906001019060200180831161050b57829003601f168201915b505050505081526020019060010190610480565b50505050815250508152602001906001019061023e565b50505050905090565b6002818154811061056957fe5b9060005260206000209060050201600091509050806000015490806001018054600181600116156101000203166002900480601f01602080910402602001604051908101604052809291908181526020018280546001816001161561010002031660029004801561061b5780601f106105f05761010080835404028352916020019161061b565b820191906000526020600020905b8154815290600101906020018083116105fe57829003601f168201915b5050505050908060020154908060040160009054906101000a900460ff16905084565b6001600081548092919060010191905055506060606460405190808252806020026020018201604052801561068757816020015b60608152602001906001900390816106725790505b5090506040518060a00160405280600154815260200183815260200160008152602001828152602001600015158152506002600154815481106106c657fe5b90600052602060002090600502016000820151816000015560208201518160010190805190602001906106fa929190611215565b50604082015181600201556060820151816003019080519060200190610721929190611295565b5060808201518160040160006101000a81548160ff0219169083151502179055509050506003838154811061075257fe5b906000526020600020906006020160050182908060018154018082558091505090600182039060005260206000200160009091929091909150908051906020019061079e9291906112f5565b5050505050565b60005481565b60015481565b60606002805480602002602001604051908101604052809291908181526020016000905b828210156109c157838290600052602060002090600502016040518060a001604052908160008201548152602001600182018054600181600116156101000203166002900480601f01602080910402602001604051908101604052809291908181526020018280546001816001161561010002031660029004801561089b5780601f106108705761010080835404028352916020019161089b565b820191906000526020600020905b81548152906001019060200180831161087e57829003601f168201915b505050505081526020016002820154815260200160038201805480602002602001604051908101604052809291908181526020016000905b8282101561098f578382906000526020600020018054600181600116156101000203166002900480601f01602080910402602001604051908101604052809291908181526020018280546001816001161561010002031660029004801561097b5780601f106109505761010080835404028352916020019161097b565b820191906000526020600020905b81548152906001019060200180831161095e57829003601f168201915b5050505050815260200190600101906108d3565b5050505081526020016004820160009054906101000a900460ff161515151581525050815260200190600101906107d5565b50505050905090565b600080815480929190600101919050555060606064604051908082528060200260200182016040528015610a1257816020015b60608152602001906001900390816109fd5790505b50905060036040518060c001604052806000548152602001868152602001848152602001600081526020018581526020018381525090806001815401808255809150509060018203906000526020600020906006020160009091929091909150600082015181600001556020820151816001019080519060200190610a98929190611215565b506040820151816002019080519060200190610ab5929190611215565b50606082015181600301556080820151816004019080519060200190610adc929190611215565b5060a0820151816005019080519060200190610af9929190611295565b5050505050505050565b610b0b611375565b60028281548110610b1857fe5b90600052602060002090600502016040518060a001604052908160008201548152602001600182018054600181600116156101000203166002900480601f016020809104026020016040519081016040528092919081815260200182805460018160011615610100020316600290048015610bd45780601f10610ba957610100808354040283529160200191610bd4565b820191906000526020600020905b815481529060010190602001808311610bb757829003601f168201915b505050505081526020016002820154815260200160038201805480602002602001604051908101604052809291908181526020016000905b82821015610cc8578382906000526020600020018054600181600116156101000203166002900480601f016020809104026020016040519081016040528092919081815260200182805460018160011615610100020316600290048015610cb45780601f10610c8957610100808354040283529160200191610cb4565b820191906000526020600020905b815481529060010190602001808311610c9757829003601f168201915b505050505081526020019060010190610c0c565b5050505081526020016004820160009054906101000a900460ff1615151515815250509050919050565b60038181548110610cff57fe5b9060005260206000209060060201600091509050806000015490806001018054600181600116156101000203166002900480601f016020809104026020016040519081016040528092919081815260200182805460018160011615610100020316600290048015610db15780601f10610d8657610100808354040283529160200191610db1565b820191906000526020600020905b815481529060010190602001808311610d9457829003601f168201915b505050505090806002018054600181600116156101000203166002900480601f016020809104026020016040519081016040528092919081815260200182805460018160011615610100020316600290048015610e4f5780601f10610e2457610100808354040283529160200191610e4f565b820191906000526020600020905b815481529060010190602001808311610e3257829003601f168201915b505050505090806003015490806004018054600181600116156101000203166002900480601f016020809104026020016040519081016040528092919081815260200182805460018160011615610100020316600290048015610ef35780601f10610ec857610100808354040283529160200191610ef3565b820191906000526020600020905b815481529060010190602001808311610ed657829003601f168201915b5050505050905085565b610f056113a6565b60038281548110610f1257fe5b90600052602060002090600602016040518060c001604052908160008201548152602001600182018054600181600116156101000203166002900480601f016020809104026020016040519081016040528092919081815260200182805460018160011615610100020316600290048015610fce5780601f10610fa357610100808354040283529160200191610fce565b820191906000526020600020905b815481529060010190602001808311610fb157829003601f168201915b50505050508152602001600282018054600181600116156101000203166002900480601f0160208091040260200160405190810160405280929190818152602001828054600181600116156101000203166002900480156110705780601f1061104557610100808354040283529160200191611070565b820191906000526020600020905b81548152906001019060200180831161105357829003601f168201915b5050505050815260200160038201548152602001600482018054600181600116156101000203166002900480601f01602080910402602001604051908101604052809291908181526020018280546001816001161561010002031660029004801561111c5780601f106110f15761010080835404028352916020019161111c565b820191906000526020600020905b8154815290600101906020018083116110ff57829003601f168201915b5050505050815260200160058201805480602002602001604051908101604052809291908181526020016000905b82821015611206578382906000526020600020018054600181600116156101000203166002900480601f0160208091040260200160405190810160405280929190818152602001828054600181600116156101000203166002900480156111f25780601f106111c7576101008083540402835291602001916111f2565b820191906000526020600020905b8154815290600101906020018083116111d557829003601f168201915b50505050508152602001906001019061114a565b50505050815250509050919050565b828054600181600116156101000203166002900490600052602060002090601f016020900481019282601f1061125657805160ff1916838001178555611284565b82800160010185558215611284579182015b82811115611283578251825591602001919060010190611268565b5b50905061129191906113dc565b5090565b8280548282559060005260206000209081019282156112e4579160200282015b828111156112e35782518290805190602001906112d3929190611215565b50916020019190600101906112b5565b5b5090506112f19190611401565b5090565b828054600181600116156101000203166002900490600052602060002090601f016020900481019282601f1061133657805160ff1916838001178555611364565b82800160010185558215611364579182015b82811115611363578251825591602001919060010190611348565b5b50905061137191906113dc565b5090565b6040518060a00160405280600081526020016060815260200160008152602001606081526020016000151581525090565b6040518060c001604052806000815260200160608152602001606081526020016000815260200160608152602001606081525090565b6113fe91905b808211156113fa5760008160009055506001016113e2565b5090565b90565b61142a91905b80821115611426576000818161141d919061142d565b50600101611407565b5090565b90565b50805460018160011615610100020316600290046000825580601f106114535750611472565b601f01602090049060005260206000209081019061147191906113dc565b5b50565b600082601f83011261148657600080fd5b813561149961149482611bf5565b611bc8565b915080825260208301602083018583830111156114b557600080fd5b6114c0838284611d0f565b50505092915050565b6000813590506114d881611d62565b92915050565b6000806000606084860312156114f357600080fd5b600084013567ffffffffffffffff81111561150d57600080fd5b61151986828701611475565b935050602084013567ffffffffffffffff81111561153657600080fd5b61154286828701611475565b925050604084013567ffffffffffffffff81111561155f57600080fd5b61156b86828701611475565b9150509250925092565b60006020828403121561158757600080fd5b6000611595848285016114c9565b91505092915050565b600080604083850312156115b157600080fd5b60006115bf858286016114c9565b925050602083013567ffffffffffffffff8111156115dc57600080fd5b6115e885828601611475565b9150509250929050565b60006115fe83836117ab565b905092915050565b600061161283836118bb565b905092915050565b600061162683836119d6565b905092915050565b600061163982611c51565b6116438185611ca4565b93508360208202850161165585611c21565b8060005b85811015611691578484038952815161167285826115f2565b945061167d83611c7d565b925060208a01995050600181019050611659565b50829750879550505050505092915050565b60006116ae82611c5c565b6116b88185611cb5565b9350836020820285016116ca85611c31565b8060005b8581101561170657848403895281516116e78582611606565b94506116f283611c8a565b925060208a019950506001810190506116ce565b50829750879550505050505092915050565b600061172382611c67565b61172d8185611cc6565b93508360208202850161173f85611c41565b8060005b8581101561177b578484038952815161175c858261161a565b945061176783611c97565b925060208a01995050600181019050611743565b50829750879550505050505092915050565b61179681611cf9565b82525050565b6117a581611cf9565b82525050565b60006117b682611c72565b6117c08185611cd7565b93506117d0818560208601611d1e565b6117d981611d51565b840191505092915050565b60006117ef82611c72565b6117f98185611ce8565b9350611809818560208601611d1e565b61181281611d51565b840191505092915050565b600060c0830160008301516118356000860182611a53565b506020830151848203602086015261184d82826117ab565b9150506040830151848203604086015261186782826117ab565b915050606083015161187c6060860182611a53565b506080830151848203608086015261189482826117ab565b91505060a083015184820360a08601526118ae828261162e565b9150508091505092915050565b600060c0830160008301516118d36000860182611a53565b50602083015184820360208601526118eb82826117ab565b9150506040830151848203604086015261190582826117ab565b915050606083015161191a6060860182611a53565b506080830151848203608086015261193282826117ab565b91505060a083015184820360a086015261194c828261162e565b9150508091505092915050565b600060a0830160008301516119716000860182611a53565b506020830151848203602086015261198982826117ab565b915050604083015161199e6040860182611a53565b50606083015184820360608601526119b6828261162e565b91505060808301516119cb608086018261178d565b508091505092915050565b600060a0830160008301516119ee6000860182611a53565b5060208301518482036020860152611a0682826117ab565b9150506040830151611a1b6040860182611a53565b5060608301518482036060860152611a33828261162e565b9150506080830151611a48608086018261178d565b508091505092915050565b611a5c81611d05565b82525050565b611a6b81611d05565b82525050565b60006020820190508181036000830152611a8b81846116a3565b905092915050565b60006020820190508181036000830152611aad8184611718565b905092915050565b60006020820190508181036000830152611acf818461181d565b905092915050565b60006020820190508181036000830152611af18184611959565b905092915050565b6000602082019050611b0e6000830184611a62565b92915050565b600060a082019050611b296000830188611a62565b8181036020830152611b3b81876117e4565b90508181036040830152611b4f81866117e4565b9050611b5e6060830185611a62565b8181036080830152611b7081846117e4565b90509695505050505050565b6000608082019050611b916000830187611a62565b8181036020830152611ba381866117e4565b9050611bb26040830185611a62565b611bbf606083018461179c565b95945050505050565b6000604051905081810181811067ffffffffffffffff82111715611beb57600080fd5b8060405250919050565b600067ffffffffffffffff821115611c0c57600080fd5b601f19601f8301169050602081019050919050565b6000819050602082019050919050565b6000819050602082019050919050565b6000819050602082019050919050565b600081519050919050565b600081519050919050565b600081519050919050565b600081519050919050565b6000602082019050919050565b6000602082019050919050565b6000602082019050919050565b600082825260208201905092915050565b600082825260208201905092915050565b600082825260208201905092915050565b600082825260208201905092915050565b600082825260208201905092915050565b60008115159050919050565b6000819050919050565b82818337600083830152505050565b60005b83811015611d3c578082015181840152602081019050611d21565b83811115611d4b576000848401525b50505050565b6000601f19601f8301169050919050565b611d6b81611d05565b8114611d7657600080fd5b5056fea365627a7a7231582021e839d751f4f77e6c546cfde18987f6926e6c5ca6399b9717b3740035d10f516c6578706572696d656e74616cf564736f6c63430005100040",
  "source": "pragma solidity <=0.8.11;\r\npragma experimental ABIEncoderV2;\r\ncontract Donation{\r\n    uint public charityCount=0;\r\n    uint public donorsCount=0;\r\n    DonorsInfo[] public donors;\r\n    Charity[] public charities;\r\n\r\n    struct Charity{\r\n        uint id;\r\n        string name;\r\n        string date;\r\n        uint amountReceived;\r\n        string description;\r\n        string[] history;\r\n    }\r\n\r\n    struct DonorsInfo{\r\n        uint id;\r\n        string name;\r\n        uint amountDonated;\r\n        string[] history;\r\n        bool transfered;\r\n    }\r\n\r\n    function getCharity(uint id) public view returns (Charity memory) {\r\n        return charities[id];\r\n    }\r\n\r\n    function getCharities() public view returns (Charity[] memory) {\r\n        return charities;\r\n    }\r\n\r\n    function addCharity(string memory name,string memory description, string memory date) public {\r\n        charityCount++;\r\n        string[] memory history=new string[](100);\r\n        charities.push(Charity(charityCount,name,date,0,description,history));\r\n    }\r\n\r\n    function getdonors() public view returns (DonorsInfo[] memory){\r\n        return donors;\r\n    }\r\n\r\n    function getdonor(uint id) public view returns (DonorsInfo memory){\r\n        return donors[id];\r\n    }\r\n\r\n    function addDonors(uint charity_id,string memory donorName) public {\r\n        donorsCount++;\r\n        string[] memory _history = new string[](100);\r\n        donors[donorsCount] = DonorsInfo(donorsCount,donorName,0,_history, false);\r\n        charities[charity_id].history.push(donorName);\r\n    }\r\n\r\n    // function donate(address fromAddress, address toAddress,uint charity_id) public{\r\n        \r\n    // }\r\n}",
  "sourcePath": "C:\\Users\\HP\\Desktop\\Projects\\Donation_System\\contracts\\Donation.sol",
  "compiler": {
    "name": "solc",
    "version": "0.5.16+commit.9c3226ce.Emscripten.clang"
  },
  "schemaVersion": "3.4.4",
  "updatedAt": "2022-01-11T09:45:50.687Z",
  "networkType": "ethereum",
  "devdoc": {
    "methods": {}
  },
  "userdoc": {
    "methods": {}
  }
}